:020000040800F2
:10000000883700209D0100089D3B000861300008F2
:10001000113900085D0C0008A14C00080000000028
:10002000000000000000000000000000573C000835
:100030006D0F000800000000553C00080542000854
:10004000B7010008B7010008B7010008B7010008B0
:10005000B7010008B7010008B7010008B7010008A0
:10006000B7010008B7010008B7010008B701000890
:10007000B7010008B7010008B7010008B701000880
:10008000B7010008B7010008B7010008B701000870
:10009000B7010008B7010008B7010008B701000860
:1000A000B7010008B7010008B7010008B701000850
:1000B000B701000821420008B7010008B701000895
:1000C000B7010008B7010008B7010008B701000830
:1000D000B7010008FD4900080D4A0008B7010008F3
:1000E000B7010008B7010008B7010008B701000810
:1000F000B7010008B7010008B7010008B701000800
:10010000B7010008B7010008B7010008B7010008EF
:10011000B7010008314500084D420008B70100084A
:10012000B7010008D10D0008B7010008B7010008A9
:10013000010E0008B7010008B7010008B701000868
:10014000B7010008B7010008B7010008B7010008AF
:10015000B7010008B7010008B7010008B70100089F
:10016000B7010008B7010008B7010008B70100088F
:10017000B7010008B7010008B7010008000000003F
:10018000B7010008B7010008DFF80CD000F0B2FB9F
:10019000004800477D9C00088837002006488047BB
:1001A00006480047FEE7FEE7FEE7FEE7FEE7FEE75C
:1001B000FEE7FEE7FEE7FEE70D42000889010008C2
:1001C0002DE9F05F0546002092469B46884606468C
:1001D000814640241BE0284641464746224600F01F
:1001E000BCFA53465A46C01A914110D311461846DC
:1001F000224600F0A3FA2D1A67EB01084F4622466B
:100200000120002100F09AFA17EB00094E41201E50
:10021000A4F10104DFDC484631462A464346BDE8E6
:10022000F09F2DE9F0410024061B254671F10006E0
:1002300005DA01240027D0EB070067EB0101161E49
:1002400073F1000605DA0027D2EB0702012567EB00
:100250000303FFF7B5FF86460E4617469C46AC42A1
:1002600004D00025D0EB050E65EB010624B100207B
:10027000D2EB000760EB030C704631463A4663460A
:10028000BDE8F081D2B201E000F8012B491EFBD29B
:1002900070470022F6E710B513460A460446194691
:1002A000FFF7F0FF204610BD30B50446002003469E
:1002B00000E05B1C934203D2E05CCD5C401BF8D0B5
:1002C00030BD2DE9FE4F804681EA0300C00F0C4689
:1002D000009021F0004123F00045B8EB0200A94155
:1002E00005D24046214690461C460B46024623F066
:1002F0000040104347D0270DC7F30A00C3F30A514B
:100300000290401A019040286BDAC3F3130040F4C6
:10031000801B0098924620B10023D2EB030A63EBC6
:100320000B0B01985946C0F14002504600F006FA06
:1003300006460D4650465946019A00F01EFA10EB4B
:1003400008006141002487EA115284EAE7731A43E6
:1003500040D0009A62B3019A012A4FEA075215DC95
:10036000001B61EB02014FF0004202EA0752CDE9A7
:100370000042001C41F5801132462B4600F055FA30
:1003800003B0BDE8F08F40462146F9E7001B61EB62
:100390000201001C41F5801300185B412018A2F5F2
:1003A000001747EB030140EAD570B6196D4111E023
:1003B0006D084FEA360645EAC0754FEA0752001B42
:1003C00061EB0201001C41F5801149084FEA300041
:1003D0000019514132462B4603B0BDE8F04F00F002
:1003E00015BA0098012240000023D0EB020263EB13
:1003F000E073009821464FEAE074B8EB000061EB2F
:100400000401E9E783F000435BE781F0004158E72E
:100410002DE9FE4F81EA030404F0004421F000417D
:1004200000944FF0000B23F0004350EA01045ED02B
:1004300052EA03045BD0C3F30A54C1F30A552C44B7
:10044000A4F2F3340194A0FB0254C1F3130141F46C
:100450008011C3F3130343F4801301FB024400FB38
:10046000034E840A970A44EA815447EA8357A4FB5F
:10047000076802958D0A05FB07854FEA932C04FB5C
:100480000C542705029D4FEA065847EA1637B5EB8C
:1004900008056EEB070C870E920E47EA811742EAB9
:1004A0008312A7FB0201B6EB0B0164EB00042B0DDA
:1004B00043EA0C335E1844EB1C50DA465146E7FB26
:1004C0000201C5F313044FEA0B3343EA14534FEA16
:1004D0000432019C43EA0603A4F10C040294009C3C
:1004E000CDE900B400F0A1F903B0BDE8F08F002021
:1004F0000146F9E72DE9F04D81EA030404F0004BD1
:1005000021F0004514464FF0000A23F0004150EA64
:10051000050220D054EA01021DD0C5F30A57024655
:10052000C5F31303C1F31300C1F30A5640F4801559
:1005300043F48013A7EB0608101BD64608F2FD38DB
:1005400073EB050002D308F1010801E092185B414A
:10055000B8F1000F03DA00200146BDE8F08D00205D
:100560004FF48011064684460EE0171B73EB050717
:1005700005D3121B63EB050306434CEA010C490843
:100580004FEA300092185B4150EA0107EDD152EA80
:10059000030012D082EA040083EA0501084305D073
:1005A000101BAB4106D20122002306E000224FF0CF
:1005B000004302E06FF0010253101AEB06004CEB0F
:1005C000085110EB0A0041EB0B01BDE8F04D00F0C3
:1005D0001DB90EB5C10F80EAE0700844CA070021BA
:1005E00040F233438DE80E000A460B4600F01DF939
:1005F00003B000BD0EB540F2334102910021CDE9B8
:1006000000110A460B4600F010F903B000BD70B5AA
:10061000C1F30A5201F000450024C1F3130140F276
:10062000FF3341F480119A4201DA002070BD40F29C
:1006300033439A42A2F2334203DC524200F08DF877
:1006400000E090402C43F1D0404270BDC1F30A520B
:1006500010B5C1F3130140F2FF3341F480119A4207
:1006600001DA002010BD40F233439A42A2F2334235
:1006700003DC524200F071F810BD904010BD00F054
:10068000004230F000400AD0C10D01F56071C0F3A6
:10069000160042EA0151C20840071143704700208A
:1006A0000146704730B5041E71F1000404DB4FF0C1
:1006B0000044404264EB0101141E73F1000405DBA9
:1006C0001C464FF00043524263EB04038B4208BFC9
:1006D000824230BD30B5041E71F1000404DB4FF0DE
:1006E0000044404264EB0101141E73F1000405DB79
:1006F0001C464FF00043524263EB0403994208BF8B
:10070000904230BD01F0004330B421F0004150EA86
:10071000010206D00A0DA2F56072C1F31301002A8E
:1007200002DC30BC00207047440F44EAC104C10021
:10073000E01830BC00EBC25000F031B8202A04DBD6
:10074000203A00FA02F1002070479140C2F12003E4
:1007500020FA03F3194390407047202A04DB203A23
:1007600021FA02F00021704721FA02F3D040C2F1D1
:1007700020029140084319467047202A06DBCB1718
:10078000203A41FA02F043EAE07306E041FA02F34C
:10079000D040C2F120029140084319467047002919
:1007A000A8BF7047401C490008BF20F001007047F7
:1007B00010B4B0FA80FC00FA0CF050EA010404BF57
:1007C00010BC704749B1CCF1200421FA04F411FAAD
:1007D0000CF118BF012121430843A3EB0C01CB1DF1
:1007E0004FEA00614FEA102042BF002010BC704762
:1007F00000EBC35010440029A4BF10BC7047401C3C
:10080000490008BF20F0010010BC704710B5141E4D
:1008100073F1000408DA401C41F1000192185B41B9
:100820001A4301D120F0010010BD2DE9F04D924690
:100830009B4611B1B1FA81F202E0B0FA80F22032A7
:100840009046FFF77BFF04460F4640EA0A0041EA64
:100850000B0153465A46084313D0114653EA010090
:1008600019D0C8F140025046FFF777FF05460E4603
:10087000504659464246FFF761FF084305D0012024
:1008800004E020463946BDE8F08D0020054346EAE5
:10089000E0762C4337430A986305E40AA0EB08008E
:1008A0000022FD0A44EA47540A3002D500200146DE
:1008B000E9E7010510196941DDE9084500196941B9
:1008C000BDE8F04DA2E770B521F0004303430CD022
:1008D000C1F30A550024D5EB040564EB0403D617D5
:1008E000AD1AB34102DB0020014670BD201841EB78
:1008F000025170BD064C074D06E0E06840F0010370
:1009000094E8070098471034AC42F6D3FFF740FC58
:10091000E0D6000800D700082DE9F04D00231A4664
:100920001B1A8A4103DB00200146BDE8F08DC1F3AC
:100930000A52C1F3130141F480154FF0000BD107A7
:1009400002D100186D41521E0027044640F2FF11EB
:10095000384601EB620A3E468046024600204FF4CC
:100960008011FFF7FAFEC2197141BB1846EB010076
:10097000B4EB030C75EB000C04D3E41A65EB000533
:1009800017460E46241908F101006D4180463428AF
:10099000E3DDF91946EB0600091BA84103D24FF02D
:1009A000FF32134601E0002213461BEB070046EB23
:1009B0000A51BDE8F04DFFF729BF70B58C1810F84B
:1009C000015B15F0070301D110F8013B2A1106D194
:1009D00010F8012B03E010F8016B01F8016B5B1EAE
:1009E000F9D12B0705D40023521E0DD401F8013B89
:1009F000FAE710F8013BCB1A921C03E013F8015BF5
:100A000001F8015B521EF9D5A142D8D3002070BD78
:100A100070B50546AC6B206C00F0500050BB206CEC
:100A200040F4007020642068806800F04050E8B90D
:100A3000207ED8B92068C06A00F4700020B1206818
:100A4000806800F4806088B92068406820F0200049
:100A500021684860206C20F480702064206C00F4D1
:100A6000805018B9206C40F001002064204600F04E
:100A70004DFB0BE0206C00F0100018B1204600F098
:100A800047FB03E0A06BC16C2846884770BD70B57A
:100A90000546AC6B40202064606C40F0040060644C
:100AA000204600F035FB70BD70B50446A56B2846A6
:100AB00000F02DFB70BD000055494A6822F4403219
:100AC0004A604A6843681A434A600268526822F4DE
:100AD000807203685A6002685368026943EA02221E
:100AE00003685A600268526822F0407203685A60D4
:100AF0000268526883681A4303685A600268926801
:100B000022F4006203689A6002689268C3681A431C
:100B100003689A603F4B826A9A4218D002689268D2
:100B200022F0706203689A6002689268836A1A43CE
:100B300003689A600268926822F0405203689A60E3
:100B400002689268C36A1A4303689A600BE00268FD
:100B5000926822F0706203689A600268926822F0DC
:100B6000405203689A600268926822F002020368A9
:100B70009A6002689368027E43EA420203689A60C0
:100B80002022125CA2B10268526842F4006203683B
:100B90005A600268526822F4604203685A60026830
:100BA0005368426A521E43EA423203685A6005E0C3
:100BB0000268526822F4006203685A600268D26ACE
:100BC00022F470020368DA620268D36A828B521ED2
:100BD00043EA02520368DA620268926822F4007201
:100BE00003689A600268936890F8302043EA4222D2
:100BF00003689A600268926822F4806203689A60CF
:100C000002689368426943EA822203689A607047E7
:100C1000002301400100000F10B50E4890F8780045
:100C2000022809D00B4890F87800052804D009481C
:100C300090F87800062805D100BF2021064800F072
:100C4000DFFD06E000BF00222021034800F0E2FDA6
:100C500000BF10BD083300200008024000BFFEE7BF
:100C600010B52DED0A8B04469FED390AB0EE408A8F
:100C70009FED370AF0EE408A94ED070AB8EE400A7D
:100C8000D4ED060AF8EE600AB0EE001A11EE200A62
:100C9000D4ED070AF8EE600A80EE201AB0EE418A21
:100CA00018EE100AFFF7EBFC41EC1A0B94ED090A61
:100CB00010EE101A0846FFF7E2FC41EC1C0B9FED0A
:100CC000250B53EC102BFFF7A0FB41EC1B0B53EC57
:100CD0001A2BFFF79DFB41EC190BFFF713FD08EEF4
:100CE000100AB0EE480A04F083FCF7EE000A30EE7A
:100CF000200AF0EE408A94ED020AD4ED000A30EEAC
:100D0000600AC0EE280AF0EE608A94ED000A30EE28
:100D1000280A84ED010A94ED010AD4ED040AB4EE28
:100D2000E00AF1EE10FA03DD94ED040A84ED010A05
:100D300094ED010AD4ED050AB4EEE00AF1EE10FAE2
:100D400003D294ED050A84ED010ABDEC0A8B10BDB7
:100D5000000000000000000000000000DFED1B0AA2
:100D6000B0EE600AD0ED020A90ED001A30EEC11A22
:100D7000D0ED070AF8EE600AC1EE201AB0EE610A63
:100D8000D0ED000A90ED061AB8EE411A40EE010AC5
:100D9000C0ED010AD0ED010A90ED041AF4EEC10A8B
:100DA000F1EE10FA03DDD0ED040AC0ED010AD0ED3A
:100DB000010A90ED051AF4EEC10AF1EE10FA03D221
:100DC000D0ED050AC0ED010A7047000000000000E8
:100DD0000948006800F4006060B10120074908700C
:100DE00000BF05480830006840F40060024908313F
:100DF000086000BF70470000006402401D00002032
:100E00000948006800F0200060B10120074908701F
:100E100000BF05480830006840F020000249083152
:100E2000086000BF70470000046402401C000020FE
:100E30000146087810381823B0FBF3F20848805CAC
:100E4000C865032A05D908686FF30900001D886585
:100E500003E008686FF309008865886D704700003B
:100E6000B6D30008014600208A6A8B69CBB932B13B
:100E7000012A0DD0022A03D0032A10D10EE000BFB0
:100E8000CB6A03F08073B3F1807F00D1012007E0CB
:100E9000CB6AB3F1C07F00D1012001E000E000BFC8
:100EA00034E08B69B3F5005F1AD132B1012A07D063
:100EB000022A03D0032A11D10AE000BF01200EE06C
:100EC000CB6A03F08073B3F1807F00D1012006E08C
:100ED000CB6AB3F1C07F00D1012000E000BF15E074
:100EE00032B1012A05D0022A04D0032A0CD103E032
:100EF00000BF00BF012008E0CB6A03F08073B3F1AC
:100F0000807F00D1012000E000BF00BF704730B5F6
:100F10000468246824F4802405682C6004686360F5
:100F20008468402C04D10468A2600468E16003E096
:100F30000468A1600468E26030BD000000200A4936
:100F40008860C860086148618861C8610862486259
:100F50008862C862086348638863C8630864486439
:100F60008864C864704700008C070020704710B583
:100F700002F08EFE10BD10B507F04CFF10BD000052
:100F800038B502460020009000BF92F83C000128CE
:100F900001D1022038BD012082F83C0000BF086862
:100FA000092816D91068C0680C780A3C04EB44057F
:100FB0000724AC40A0431468E0600C780A3C04EBC2
:100FC00044048868A0401468E46820431468E06022
:100FD00013E0106800690C7804EB44050724AC406A
:100FE000A043146820610C7804EB44048868A04096
:100FF000146824692043146820614868072817D2C0
:101000001068406B0C79641E04EB84051F24AC400F
:10101000A04314686063088880B20C79641E04EBF6
:101020008404A0401468646B20431468606331E05A
:1010300048680D2817D21068006B0C79E41F04EB88
:1010400084051F24AC40A04314682063088880B244
:101050000C79E41F04EB8404A0401468246B204343
:101060001468206316E01068C06A0C790D3C04EB2C
:1010700084051F24AC40A0431468E062088880B255
:101080000C790D3C04EB8404A0401468E46A20430E
:101090001468E062194B1A4C1068A04206D1086827
:1010A000122803D1586840F480005860144C10682E
:1010B000A0421CD10868102802D00868112816D157
:1010C000586840F400005860086810280FD10D4897
:1010D00000680D4CB0FBF4F000EB80004000009085
:1010E00002E00098401E009000980028F9D100BF4F
:1010F000002082F83C0000BF00BF4BE70023014006
:10110000002001400000002040420F00704770475F
:101110007047000070B5044600250CB9012070BD71
:101120001549A06A884200D000BF206C30B9204623
:1011300000F024F80020606484F83C00206C00F08B
:10114000100088B9206C20F4885040F00200206420
:101150002046FFF7B1FC00206064206C20F0020004
:1011600040F00100206400E0012500BF002084F869
:101170003C0000BF2846D2E70100000F7047000086
:10118000F8B504460D4616460020009000BF94F8BE
:101190003C00012801D10220F8BD012084F83C0068
:1011A00000BF2068806800F00100A0B92068806856
:1011B00040F0010021688860554800685549B0FB3F
:1011C000F1F000EB4000009002E00098401E00901B
:1011D00000980028F9D12068806800F48070B0F58C
:1011E000807F05D12068806820F480702168886045
:1011F0002068806800F0010000287ED0206C40F25A
:101200000161884340F4807020642068406800F4E5
:10121000806028B1206C20F4005040F4805020649D
:10122000206C00F48050B0F5805F04D1606C20F039
:101230000600606401E00020606400BF002084F8C4
:101240003C0000BF344F3548A16BC8633448A16BE4
:1012500008643448A16BC8646FF0220021680860FC
:101260002068406840F0806021684860206880689D
:1012700040F4807021688860226802F14C01334696
:101280002A46A06B00F069F9786800F01F0018BBCF
:1012900025492068884213D024492068884204D117
:1012A000381D006800F01F0050B1214920688842B5
:1012B0002BD11948001D006800F01F00102824D20F
:1012C0002068806800F04050F8B92068806840F0DD
:1012D00080402168886018E013492068884214D152
:1012E0002068806800F0405078B92068806840F03D
:1012F00080402168886008E0FFE7206C40F0100023
:101300002064606C40F001006064002044E700004D
:101310000000002040420F0000230140110A000895
:10132000A90A00088F0A000800200140002101409E
:101330000022014070B50446A56D00F077FA06461C
:1013400094F83500022808D08020606500BF002096
:1013500084F8340000BF012070BD2068006820F0D0
:101360001600216808602068406920F0800021682C
:101370004861206C08B9A06C28B12068006820F092
:101380000800216808602068006820F001002168DA
:1013900008600FE000F04AFA801B05280AD92020D7
:1013A000606500BF002084F8340000BF032084F88B
:1013B0003500D1E72068006800F001000028E9D17D
:1013C00094F85C103F208840A86000BF002084F89B
:1013D000340000BF012084F835000020BCE701463E
:1013E00091F83500022803D080204865012070471D
:1013F000052081F835000868006820F001000A68BF
:1014000010600020F3E700002DE9F04104460025BC
:1014100000F00CFA074614B90120BDE8F081606ABB
:1014200000B100BF00BF002084F8340000BF0220DC
:1014300084F835002068006820F001002168086009
:101440000AE000F0F3F9C01B052805D920206065EB
:10145000032084F83500E0E72068006800F0010010
:101460000028EED12068056821480540D4E9010133
:101470000843E16808432169084361690843A16999
:101480000843E1690843216A08430543606A042868
:1014900003D1D4E90B0108430543206805602068A7
:1014A000456925F00705606A0543606A04280DD187
:1014B000A06A0543E06A48B12046FFF7D3FC28B193
:1014C00040206065012084F83500A6E7206845616A
:1014D0002046FFF7ADFC064694F85C103F2088409C
:1014E000B06000206065012084F83500002094E79A
:1014F0003F8010F02DE9F04104460D4616461F4688
:101500004FF0000800BF94F83400012802D10220F7
:10151000BDE8F081012084F8340000BF94F8350064
:10152000012811D1022084F83500002060653B4677
:10153000324629462046FFF7EAFC2068006840F062
:1015400001002168086006E000BF002084F8340034
:1015500000BF4FF002084046DAE72DE9F0470446A5
:101560000D4616461F464FF00008D4F8589000BFAD
:1015700094F83400012802D10220BDE8F087012050
:1015800084F8340000BF94F83500012825D10220EA
:1015900084F83500002060653B46324629462046E7
:1015A000FFF7B5FC94F85C103F208840C9F80800AC
:1015B0002068006840F0160021680860206C28B19F
:1015C0002068006840F00800216808602068006812
:1015D00040F001002168086006E000BF002084F8A8
:1015E000340000BF4FF002084046C6E7F8B5024697
:1015F0000B460025002400200021DEE0012606FA2B
:1016000001F51E6806EA0504AC4275D11E7906F0A4
:101610000306012E04D01E7906F00306022E13D114
:1016200090684F000326BE40B0434F00DE68BE40C6
:1016300030439060506801268E40B0431E79C6F357
:1016400000168E40304350601E7906F00306032ECC
:1016500009D0D0684F000326BE40B0434F009E68BB
:10166000BE403043D0601E7906F00306022E13D12F
:10167000CF0802F1200656F827004E07F70E0F2676
:10168000BE40B0434F07FF0E1E69BE403043CF0837
:1016900002F1200646F8270010684F000326BE40DE
:1016A000B0431E7906F003064F00BE403043106081
:1016B0005E6806F08056B6F1805F7DD100BF0026DF
:1016C0000096404E366846F480463E4F3E603E46A9
:1016D000366806F48046009600BF00BF3A4E8F0879
:1016E00056F827008E07370F0F26BE40B043374EFF
:1016F000B24202D1002624E05EE0354EB24201D172
:1017000001261EE0334EB24201D1022619E0324ECC
:10171000B24201D1032614E0304EB24201D1042678
:101720000FE02F4EB24201D105260AE02D4EB24203
:1017300001D1062605E02C4EB24201D1072600E079
:1017400008268F073F0FBE4030431F4E8F0846F8D4
:101750002700264E3068A0435E6806F48036B6F552
:10176000803F00D12043214E3060361D3068A043B9
:101770005E6806F40036B6F5003F00D120431B4EEC
:10178000361D3060361D3068A0435E6806F4801652
:10179000B6F5801F00D12043144E08363060361D48
:1017A0003068A0435E6806F40016B6F5001F00D14D
:1017B00020430E4E0C363060491C1029FFF41EAF3A
:1017C000F8BD0000443802400838014000000240E3
:1017D0000004024000080240000C024000100240D9
:1017E0000014024000180240001C0240003C01406E
:1017F000024613690B400BB1012000E00020704746
:1018000010B5426921EA020302EA010443EA0443F3
:10181000836110BD0AB1816101E00B0483617047EF
:1018200001480068000C7047002004E0014800688F
:10183000704700004001002070B504460CB901203B
:1018400070BD4CF6CC402168086045F255502168C7
:101850000860D4E9001048602168A0688860FFF73C
:10186000E5FF05460BE0FFF7E1FF401B302806D9F6
:101870002068C06800F0030008B10320E0E720689A
:10188000C06800F003000028EDD14AF6AA202168C4
:1018900008600020D4E701464AF6AA200A681060D2
:1018A000002070470348006803490978084401494B
:1018B00008607047400100204801002010B50A4828
:1018C000006840F40070084908600846006840F469
:1018D00080600860032000F07FF80F2000F006F819
:1018E00000F02AF8002010BD003C024070B504460C
:1018F0000E4800784FF47A71B1FBF0F00C4909689A
:10190000B1FBF0F5284600F009FC08B1012070BDDC
:10191000102C07D200222146501E00F01EF8054868
:10192000046001E00120F2E70020F0E74801002018
:1019300000000020440100207047014608460028AE
:1019400009DB00F01F0301229A4043099B0003F1C9
:10195000E023C3F8002100BF70472DE9F05F804607
:101960000D461646002703F011FA074639462A4667
:10197000334601F00700C0F1070ABAF1040F02D99B
:101980004FF0040A01E0C0F1070AD14600F1040A51
:10199000BAF1070F02D24FF0000A01E0A0F1030AEA
:1019A000D4464FF0010A0AFA09FAAAF1010A0AEA32
:1019B000020A0AFA0CFA4FF0010B0BFA0CFBABF11E
:1019C000010B0BEA030B4AEA0B042146404603F0E5
:1019D000E5F9BDE8F09F000000BF00F00702064BEC
:1019E00019684FF6FF031940044B0B4343EA0221E9
:1019F000014B196000BF70470CED00E00000FA05D4
:101A000070B504460D460CB9012070BD58480068F9
:101A100000F00700A84209D255490D700846006839
:101A200000F00700A84201D00120EEE7207800F086
:101A3000020002281DD1207800F00400042805D1FE
:101A40004C48006840F4E0504A490860207800F0B3
:101A50000800082805D14748006840F4604045491F
:101A600008604448006820F0F000A168084341493C
:101A70000860207800F00100A8B36068012807D151
:101A80003C4808380068C0F34040B8B90120BCE7C2
:101A90006068022802D06068032807D135480838FA
:101AA0000068C0F3406048B90120AEE7314808380B
:101AB0000068C0F3400008B90120A6E72D4800687F
:101AC00020F00300616808432A490860FFF7AEFE72
:101AD000064609E0FFF7AAFE801B41F288318842E2
:101AE00002D9032091E707E02248006800F00C00CB
:101AF0006168B0EB810FEDD11D48006800F0070070
:101B0000A84209D91A490D700846006800F007007C
:101B1000A84201D0012078E7207800F004000428D2
:101B200007D11448006820F4E050E16808431149E7
:101B30000860207800F00800082808D10D480068E7
:101B400020F46040216940EAC1000A49086000F0C1
:101B50003FF808490968C1F30311074A515CC840BE
:101B60000649086006480068FFF7C0FE00204CE701
:101B7000003C02400838024058C500080000002020
:101B80004401002001480068704700000000002068
:101B900000B5FFF7F7FF04490968C1F38221034A42
:101BA000515CC84000BD00000838024068C500080C
:101BB00000B5FFF7E7FF04490968C1F34231034A62
:101BC000515CC84000BD00000838024068C50008EC
:101BD0002DE9F047002400250026A146254800688D
:101BE00000F00C0020B1042805D008283AD105E007
:101BF000DFF8849039E0DFF8849036E01D48001F5C
:101C0000006800F03F041B48001F006800F48000DB
:101C100078B11A481749091F0968C1F38811A0FB58
:101C200001700146224600233846FEF7C9FA0546F0
:101C30000EE011480F49091F0968C1F38811A0FB84
:101C400001700146224600233846FEF7B9FA0546E0
:101C50000848001F0068C0F30140401C4600B5FB67
:101C6000F6F902E0DFF8109000BF00BF4846BDE87B
:101C7000F0870000083802400024F40000127A00C7
:101C8000F8B504460CB90120F8BD207800F0010039
:101C9000002874D0F948006800F00C0004280DD02A
:101CA000F648006800F00C00082813D1F348001F24
:101CB000006800F48000B0F5800F0BD1EF480838C1
:101CC0000068C0F34040002859D06068002856D111
:101CD0000120D9E700BF6068B0F5803F08D1E74830
:101CE0000838006840F48030E449083908601EE094
:101CF0006068B0F5A02F0DD1E0480838006840F4C6
:101D00008020DE49083908600846006840F48030C9
:101D100008600CE0D9480838006820F48030D749C2
:101D2000083908600846006820F48020086000BF79
:101D3000606890B1FFF77AFD054606E0FFF776FD93
:101D4000401B642801D903209EE7CC48083800686E
:101D5000C0F340400028F1D011E0FFF767FD0546D1
:101D600006E0FFF763FD401B642801D903208BE7E1
:101D7000C24808380068C0F340400028F1D12078FC
:101D800000F0020002285FD1BC48006800F00C009F
:101D900058B1BA48006800F00C0008281CD1B748B8
:101DA000001F006800F48000B0B9B448083800682B
:101DB000C0F3400020B1E068012801D0012063E7B2
:101DC000AE480838006820F0F800216940EAC100F8
:101DD000AA490839086037E0E06800B30120A84943
:101DE0000860FFF723FD054606E0FFF71FFD401BD7
:101DF000022801D9032047E7A04808380068C0F34B
:101E000040000028F1D09D480838006820F0F80014
:101E1000216940EAC10099490839086014E00020AE
:101E200097490860FFF702FD054606E0FFF7FEFC54
:101E3000401B022801D9032026E790480838006893
:101E4000C0F340000028F1D1207800F008000828F5
:101E50002CD16069A8B101208A490860FFF7E6FC2F
:101E6000054606E0FFF7E2FC401B022801D90320EB
:101E70000AE782486C300068C0F340000028F1D0C7
:101E800014E000207F490860FFF7D0FC054606E01B
:101E9000FFF7CCFC401B022801D90320F4E6774869
:101EA0006C300068C0F340000028F1D1207800F0C9
:101EB0000400042870D1002770483830006800F012
:101EC000805090B900BF002000906C483830006806
:101ED00040F080506949383108600846006800F0D9
:101EE0008050009000BF00BF01276748006800F4E1
:101EF0008070B0B96448006840F48070624908603E
:101F0000FFF794FC054606E0FFF790FC401B022813
:101F100001D90320B8E65C48006800F4807000280E
:101F2000F2D000BFA068012808D15448683000688A
:101F300040F001005149683108601DE0A0680528A3
:101F40000DD14E486830006840F004004B496831BC
:101F500008600846006840F0010008600CE047484F
:101F60006830006820F00100444968310860084684
:101F7000006820F00400086000BFA068A8B1FFF767
:101F800055FC054609E0FFF751FC401B41F2883142
:101F9000884202D9032077E626E038486830006896
:101FA000C0F340000028EED013E0FFF73FFC0546E9
:101FB00008E0FFF73BFC401B41F28831884201D921
:101FC000032061E62D4868300068C0F34000002817
:101FD000EFD1012F07D129483830006820F0805018
:101FE00026493831086000BFA069002845D0234841
:101FF000006800F00C0008285DD0A069022845D1D7
:1020000000201F490866FFF711FC054606E0FFF7B0
:102010000DFC401B022801D9032035E6174808387B
:102020000068C0F340600028F1D1D4E907010843FB
:10203000616A40EA81110122A06AC2EB500041EAC4
:1020400000412C20005D41EA00600C49091F086036
:1020500001200B490866FFF7E9FB054606E0FFF79C
:10206000E5FB401B022801D903200DE60348083890
:102070000068C0F340600028F1D049E00838024011
:1020800000004742800E4742007000400020214976
:102090000866FFF7CBFB054606E0FFF7C7FB401BD2
:1020A000022801D90320EFE51B480068C0F3406017
:1020B0000028F2D12CE0A069012800D1E4E51648FF
:1020C000001D0668A069012820D006F48001E0699F
:1020D00081421BD106F03F01206A814216D147F6AA
:1020E000C0703040616AB0EB811F0FD106F44031FF
:1020F0000122A06AC2EB5000B1EB004F06D106F0FE
:1021000070612C20005DB1EB006F01D00120BBE5B8
:102110000020B9E5000047420038024070B504468F
:102120002546681EB0F1807F01D301200FE0681EB4
:102130004FF0E02148610F214FF0FF3002F02EFEFA
:1021400000204FF0E021886107200861002070BD69
:102150007047704710B504460CB9012010BD94F8C3
:102160003D0028B9002084F83C00204600F026F805
:10217000022084F83D00211D206802F06FF8012044
:1021800084F8460000BF84F83E0001213F2001553D
:10219000402001554120015500BF00BF012084F8B7
:1021A000420043200155442001554520015500BF00
:1021B000012084F83D000020D0E7000038B5044637
:1021C0000F492068884219D100BF00BF002000904D
:1021D0000C48006840F010000A4908600846006892
:1021E00000F01000009000BF00BF00BF01221146A8
:1021F0003620FFF7B2FB3620FFF79FFB38BD00000B
:102200000010004040380240014691F83D0001288E
:1022100001D001207047022081F83D000868C068A5
:1022200040F001000B68D8601A4B086898421BD038
:102230000868B0F1804F17D0174B0868984213D048
:10224000164B086898420FD0154B086898420BD07F
:10225000144B0868984207D0134B0868984203D083
:10226000124B086898420CD10868806800F0070299
:10227000062A0CD00868006840F001000B6818605E
:1022800005E00868006840F001000B681860002055
:10229000C0E70000000001400004004000080040CA
:1022A000000C0040000401400040014000180040C4
:1022B000704710B5044620680069C0F34000D8B1EB
:1022C0002068C068C0F34000B0B16FF00200216820
:1022D0000861012020772068806900F0030018B1B0
:1022E0002046FFF7E5FF05E0204600F0ADF8204668
:1022F00000F0D2FA0020207720680069C0F3800047
:10230000D8B12068C068C0F38000B0B16FF004009D
:1023100021680861022020772068806900F44070FD
:1023200018B12046FFF7C4FF05E0204600F08CF806
:10233000204600F0B1FA0020207720680069C0F341
:10234000C000D8B12068C068C0F3C000B0B16FF061
:10235000080021680861042020772068C06900F027
:10236000030018B12046FFF7A3FF05E0204600F068
:102370006BF8204600F090FA002020772068006972
:10238000C0F30010D8B12068C068C0F30010B0B12D
:102390006FF0100021680861082020772068C0696C
:1023A00000F4407018B12046FFF782FF05E0204698
:1023B00000F04AF8204600F06FFA002020772068ED
:1023C000006900F0010058B12068C06800F0010009
:1023D00030B16FF0010021680861204600F0E4FA96
:1023E00020680069C0F3C01058B12068C068C0F30D
:1023F000C01030B16FF08000216808612046FFF7FF
:10240000A7FE20680069C0F3801058B12068C0683A
:10241000C0F3801030B16FF04000216808612046A1
:1024200000F00CFB20680069C0F3401058B1206830
:10243000C068C0F3401030B16FF02000216808611F
:102440002046FFF786FE10BD704770B504460D4666
:10245000164600BF94F83C00012801D1022070BD4F
:10246000012084F83C0000BF36B1042E1BD0082E9A
:1024700031D00C2E5ED145E02946206801F06CFF7A
:102480002068806940F008002168886120688069C0
:1024900020F0040021688861206880692969084368
:1024A0002168886147E02946206801F08DFF206897
:1024B000806940F40060216888612068806920F4A8
:1024C00080602168886120688069296940EA01206C
:1024D000216888612FE02946206801F0B3FF206859
:1024E000C06940F008002168C8612068C06920F018
:1024F00004002168C8612068C0692969084321680F
:10250000C86118E02946206801F0D8FF2068C0693A
:1025100040F400602168C8612068C06920F48060D0
:102520002168C8612068C069296940EA01202168E2
:10253000C86100E000BF00BF00BF002084F83C007D
:1025400000BF00BF8BE710B504460CB9012010BDD9
:1025500094F83D0028B9002084F83C00204600F0A3
:1025600025F8022084F83D00211D206801F076FE48
:10257000012084F8460000BF84F83E0001213F207E
:102580000155402001554120015500BF00BF0120E9
:1025900084F842004320015544200155452001554F
:1025A00000BF012084F83D000020D0E710B586B0C0
:1025B0000446AD492068884233D100BF00BF0020E7
:1025C0000090AA48006840F00100A8490860084649
:1025D000006800F00100009000BF00BF00BF00BF16
:1025E00000BF00200090A1481030006840F00800B3
:1025F0009E49103108600846006800F0080000900D
:1026000000BF00BF00BF0320019002200290012004
:10261000039002200490059001A99548FEF7E6FF7B
:1026200000BF94492068884234D100BF00BF002019
:1026300000908E48006840F010008C490860084601
:10264000006800F01000009000BF00BF00BF00BF96
:1026500000BF0020009085481430006840F48030AE
:102660008249143108600846006800F48030009008
:1026700000BF00BF00BF6020019002200290012037
:102680000390022004900320059001A97A48FEF7E8
:10269000ADFF00BF79492068884235D100BF00BF37
:1026A000002000907148006840F001006F49086008
:1026B0000846006800F00100009000BF00BF00BFA6
:1026C00000BF00BF0020009068481430006840F050
:1026D00001006649143108600846006800F00100F6
:1026E000009000BF00BF00BF4FF440700190022077
:1026F000029001200390022004900120059001A97E
:102700005B48FEF773FF00BF5D492068884235D102
:1027100000BF00BF002000905448006840F0040053
:10272000524908600846006800F00400009000BFAD
:1027300000BF00BF00BF00BF002000904B48143016
:10274000006840F0020049491431086008460068FA
:1027500000F00200009000BF00BF00BF4FF4707097
:102760000190022002900120039002200490032097
:10277000059001A94348FEF739FF00BF4249206890
:10278000884234D100BF00BF002000903748006865
:1027900040F00800354908600846006800F008006D
:1027A000009000BF00BF00BF00BF00BF002000902E
:1027B0002E481030006840F004002C4910310860A9
:1027C0000846006800F00400009000BF00BF00BF92
:1027D0004FF47040019002200290012003900220EB
:1027E0000490059001A92948FEF700FF00BF284981
:1027F0002068884235D100BF00BF002000901B48F0
:10280000006840F00200194908600846006800F0BE
:102810000200009000BF00BF00BF00BF00BF00204B
:10282000009012481030006840F040000F4910310D
:1028300008600846006800F04000009000BF00BF3C
:1028400000BF4FF44040019002200290012003900D
:10285000022004900920059001A90E48FEF7C6FE4B
:1028600000BF06B010BD0000000C00403038024030
:102870000000024000400140001002400000014002
:10288000000401400008024000080040000C024023
:1028900000180040000402407047000070B5044674
:1028A0000D4615B994F83E000BE0042D02D13F20EF
:1028B000005D06E0082D02D14020005D01E04120CE
:1028C000005D012801D0012070BD1DB9022084F8EF
:1028D0003E000EE0042D03D102213F20015508E007
:1028E000082D03D102214020015502E002214120A0
:1028F000015501222946206801F01CFD234920686A
:10290000884203D022492068884201D1012000E09A
:10291000002028B12068406C40F4004021684864E1
:102920001A49206888421BD02068B0F1804F17D028
:1029300018492068884213D01749206888420FD070
:102940001649206888420BD011492068884207D078
:1029500013492068884203D01249206888420CD16C
:102960002068806800F00706062E0CD020680068FA
:1029700040F001002168086005E02068006840F030
:1029800001002168086000209EE70000000001406F
:10299000000401400004004000080040000C00401A
:1029A000004001400018004010B50446204920684E
:1029B00088423CD101F0F4F81E4890F8670088B1D5
:1029C0001C4890F86500401C1A4981F865000846CB
:1029D00090F86500082805DB002081F867000120D9
:1029E00081F86800144890F8670088B1124890F8A0
:1029F0006500401C104981F86500084690F86500A4
:102A0000082805DB002081F86700012081F86800B4
:102A10000948D0F8D800401C0749C1F8D80008463A
:102A2000D0F8D800642802DD012081F8DC0010BD58
:102A300000100040842F002098300020704770471D
:102A4000704700002DE9F84F0446206805682068AB
:102A5000C668206847694FF00009CA4605F00F09AB
:102A6000B9F1000F0AD105F0200038B106F02000BE
:102A700020B1204601F0C3FDBDE8F88FB9F1000F89
:102A800072D007F0010018B906F4907000286BD0DE
:102A900005F0010030B106F4807018B1206C40F0F0
:102AA0000100206405F0040030B107F0010018B106
:102AB000206C40F00200206405F0020030B107F005
:102AC000010018B1206C40F00400206405F00800FB
:102AD00048B106F0200010B907F0010018B1206CD1
:102AE00040F008002064206C70B305F0200028B18D
:102AF00006F0200010B1204601F081FD20684069F9
:102B0000C0F3801A206C00F0080010B9BAF1000F71
:102B100023D0204601F048FD2068406900F04000C5
:102B2000402816D12068406920F0400021684861A3
:102B3000A06B50B15648A16B0865A06BFEF74FFC27
:102B400010B1A06B016D88470CE02046FFF778FFBD
:102B500008E02046FFF774FF04E02046FFF770FF0F
:102B60000020206488E7FFE7206B012879D105F079
:102B70001000002875D006F01000002871D000BFAA
:102B80000020009020680068009020684068009055
:102B900000BF00BF2068406900F04000402839D1E4
:102BA000A06B006840681FFA80F8B8F1000F30D0C1
:102BB000A08D40452DDDA4F82E80A06BC069B0F536
:102BC000807F1FD02068C06820F480702168C860B2
:102BD0002068406920F00100216848612068406950
:102BE00020F0400021684861202084F83E00002049
:102BF00020632068C06820F010002168C860A06BC6
:102C0000FEF798FBA08DE28D801A81B22046FFF777
:102C100016FF31E7A08DE18D401A1FFA80F8E08D94
:102C2000E8B1B8F1000F1AD02068C06820F49070A5
:102C30002168C8602068406920F00100216848616F
:102C4000202084F83E00002020632068C06820F027
:102C500010002168C86041462046FFF7F0FE0BE7F0
:102C6000FFE705F0800030B106F0800018B1204683
:102C700001F05DFE00E705F0400030B106F04000D5
:102C800018B1204601F0ABFCF6E600BFF4E6000008
:102C90009545000810B504460CB9012010BDA06987
:102CA00000B100E000BF94F83D0028B9002084F88E
:102CB0003C00204600F028F8242084F83D002068DD
:102CC000C06820F400502168C860204601F0F6FC7E
:102CD0002068006920F490402168086120684069FC
:102CE00020F02A00216848612068C06840F4005044
:102CF0002168C86000202064202084F83D0084F80A
:102D00003E000020CAE7000010B586B004462D49F9
:102D10002068884254D100BF00BF002000902A489C
:102D2000006840F01000284908600846006800F07C
:102D30001000009000BF00BF00BF00BF00BF002018
:102D4000009021481438006840F002001E491439F0
:102D500008600846006800F00200009000BF00BF55
:102D600000BF00BF00BF002000900846006840F090
:102D7000020008600846006800F00200009000BFF2
:102D800000BF00BF4020019002200290012003906C
:102D9000022004900720059001A90C48FEF726FCAC
:102DA000802001900720059001A90848FEF71EFC2D
:102DB0002520FEF7C2FD032211462520FEF7CDFD9A
:102DC00006B010BD0010014044380240000402402B
:102DD0002DE9F84F04460E46174699464FF0000A73
:102DE00094F83E0020285FD106B117B90120BDE854
:102DF000F88F00BF94F83C00012801D10220F6E7CB
:102E0000012084F83C0000BF00202064222084F8C8
:102E10003E0000202063FEF709FD8246A785E78576
:102E2000A068B0F5805F04D1206910B90025B046D4
:102E300002E035464FF0000800BF002084F83C0057
:102E400000BF29E05346002220212046CDF8009003
:102E500001F09DFD08B10320C9E745B9206840682D
:102E6000C0F30800A8F8000008F1020811E0A0680B
:102E7000B0F5805F03D0A06828B9206918B9206830
:102E80004068287004E02068406800F07F002870E7
:102E90006D1CE08D401EE085E08D0028D2D1202001
:102EA00084F83E000020A2E70220A0E770B50446A7
:102EB0000D46164694F83E00202816D105B10EB9ED
:102EC000012070BD00BF94F83C00012801D1022010
:102ED000F7E7012084F83C0000BF00202063324661
:102EE0002946204601F000FDEBE70220E9E700005B
:102EF00010B504462049206888423BD11F4800880D
:102F000000F4004088BB1D48008800F4804070B188
:102F10001B4800780A2803D000201849088024E0C4
:102F20001648008840F40040144908801DE0144809
:102F300000780D2806D11148008840F480400F49E0
:102F4000088012E00E4800780C490988C1F30D0191
:102F50000C4A505409480088401C0849088008461B
:102F60000088C72801DD00200880012204490648A6
:102F7000FFF79CFF10BD0000001001400C00002076
:102F80000E00002050010020180200202DE9F84F0B
:102F900004460E46174699464FF0000A94F83D0045
:102FA00020285AD106B117B90120BDE8F88F00BF1B
:102FB00094F83C00012801D10220F6E7012084F8B2
:102FC0003C0000BF00202064212084F83D00FEF773
:102FD0002DFC8246A784E784A068B0F5805F04D109
:102FE000206910B90025B04602E035464FF00008D0
:102FF00000BF002084F83C0000BF1BE053460022C5
:1030000080212046CDF8009001F0C1FC08B10320DA
:10301000CBE745B9B8F80000C0F308002168486064
:1030200008F1020803E02878216848606D1CE08CF4
:10303000401EE084E08C0028E0D15346002240216D
:103040002046CDF8009001F0A2FC08B10320ACE7C7
:10305000202084F83D000020A7E70220A5E7704764
:1030600000BFFEE710B5FEF729FC2921632000F020
:1030700051FC2921C72000F031FD2921C72000F093
:10308000BBFC2921C72000F0E7FC2921632000F0C8
:1030900071FC2921632000F051FD07230222082141
:1030A0004FF4A87008F0B6F8A82004F0EFFC4FF435
:1030B000E13008F079F906F0FFFB05F0EFFF42F28E
:1030C000CF01092004F048FC04F0FAFB04F0CCFB2B
:1030D00004F058FC08F00CF905F0A2FE00F0E8FA44
:1030E00006F016FF00F0BCFF08F038FA4FF4FA7152
:1030F000042005F08BFF68200149088010BD000006
:103100007408002010B500200F4908600F480068BF
:1031100020F003000D4908600846006840F00100F7
:10312000086000200A49C1F88002022004F0BEFCB9
:10313000012005490860022004F0B8FC0020044981
:10314000C1F8840210BD0000848242420014024093
:103150000080424200B587B000BF002001901048B7
:10316000006840F020000E4908600846006800F042
:103170002000019000BF00BF0320029001200390B7
:1031800004900220059002A90648FEF72FFA0120BC
:10319000054908600549C1F8840207B000BD000078
:1031A0003038024000140240808242420080424295
:1031B00010B500200F4908600F48006820F0030098
:1031C0000D4908600846006840F0010008600120D1
:1031D0000A49C1F88002022004F068FC0120054978
:1031E0000860022004F062FC00200449C1F8840257
:1031F00010BD00008482424200140240008042421E
:1032000070B5054600241648006820F003001449F4
:103210000860084600680860002616E00020114992
:103220000860022004F042FC01200F49C1F884022A
:103230006006040E0B488438006808B1601CC4B2F4
:10324000012004F033FC701CC6B2082EE6DB15B971
:10325000FFF7AEFF01E0FFF755FF204670BD00000D
:1032600000140240848242420080424270B504460B
:103270001548006820F003001349086008460068FC
:1032800040F001000860002010490860002517E0A8
:10329000E0090E49091F08606006040E022004F0D0
:1032A00005FC01200A49C1F88402022004F0FEFB5B
:1032B000002006490860022004F0F8FB681CC5B233
:1032C000082DE5DB70BD00000014024084824242FC
:1032D0000080424210B50F48006820F003000D49FD
:1032E00008600846006840F00100086001200A49B3
:1032F00008600A49C1F88402042004F0D7FB0020CA
:1033000005490860042004F0D1FB00200349C1F8FE
:10331000840210BD0014024080824242008042427A
:1033200010B50F48006820F003000D4908600846FA
:10333000006840F00100086000200A4908600A495E
:10334000C1F88002042004F0B1FB012005490860A7
:103350000549C1F88002042004F0A8FB10BD00005C
:1033600000140240848242420080424210B5002490
:103370001348006820F003001149086008460068FF
:10338000086001200F49086004F090FB01200E49FD
:10339000C1F8840204F08AFB07E0601CC4B2FA2C76
:1033A00003DDFFF7BDFF012010BD0648803800682F
:1033B0000028F2D10349091D086000BFF4E70000AE
:1033C00000140240808242420080424210B505F063
:1033D000B5FF10BD10B500200F4908600F48006808
:1033E00020F440200D4908600846006840F4802021
:1033F000086000200A49C1F8A402022004F056FB2C
:10340000012005490860022004F050FB0020044917
:10341000C1F8A00210BD0000A0824042000402409A
:103420000080404200B587B000BF002001901048E6
:10343000006840F002000E4908600846006800F08D
:103440000200019000BF00BF4FF4407002900120C5
:10345000039004900220059002A90648FEF7C6F8E2
:103460000120054908600549C1F8A00207B000BD68
:103470003038024000040240A482404200804042B2
:1034800010B500200F4908600F48006820F4402064
:103490000D4908600846006840F48020086001205B
:1034A0000A49C1F8A402022004F000FB01200549EA
:1034B0000860022004F0FAFA00200449C1F8A002D2
:1034C00010BD0000A0824042000402400080404243
:1034D00070B5054600241648006820F440201449C1
:1034E0000860084600680860002616E000201149C0
:1034F0000860022004F0DAFA01200F49C1F8A002A6
:103500006006040E0B487C38006808B1601CC4B229
:10351000012004F0CBFA701CC6B2082EE6DB15B908
:10352000FFF7AEFF01E0FFF755FF204670BD00003A
:1035300000040240A08240420080404270B5044630
:103540001748006820F440201549086008460068C4
:1035500040F480200860002012490860002517E030
:10356000E0091049091D08606006040E022004F0FD
:103570009DFA01200C49C1F8A002022004F096FA3D
:10358000002008490860022004F090FA681CC5B2C7
:10359000082DE5DB00F05CF80646304670BD000003
:1035A00000040240A08240420080404210B5114811
:1035B000006820F440200F4908600846006840F485
:1035C0008020086001200C4908600C49C1F8A00265
:1035D000042004F06BFA002007490860042004F07E
:1035E00065FA00200549C1F8A002022004F05EFA45
:1035F00010BD000000040240A4824042008040420E
:1036000010B51048006820F440200E4908600846B4
:10361000006840F48020086000200B4908600B49D6
:10362000C1F8A402042004F041FA01200649086010
:103630000649C1F8A402042004F038FAFFF720FF7D
:1036400010BD000000040240A082404200804042C1
:1036500010B500241348006820F440201149086088
:1036600008460068086001200F49086004F01EFA4F
:1036700001200E49C1F8A00204F018FA07E0601C0E
:10368000C4B2FA2C03DDFFF7BBFF012010BD0648D2
:10369000803800680028F2D10349091F086000BF84
:1036A000F4E7000000040240A4824042008040424F
:1036B00010B5FFF74FFD80216B2000F0D7F8642094
:1036C00004F0EAF900216B2000F0D0F8032000F0AC
:1036D0008BF8002000F080F8322000F0AAF80021DA
:1036E000382000F0C3F800216A2000F0BFF8002164
:1036F000232000F0BBF88021372000F0B7F87520B8
:1037000000F013F80446682C0BD101216B2000F067
:10371000ADF800216C2000F0A9F8322000F089F803
:1037200001E0012010BD0020FCE770B50446FFF762
:10373000D1FDD020FFF79AFDFFF718FE2046FFF7D6
:1037400095FDFFF713FEFFF7C5FDD120FFF78EFDB6
:10375000FFF70CFE0020FFF753FD0546FFF7E0FDE5
:10376000284670BD2DE9F04106460F4614461D4619
:10377000FFF7B0FD002141EA4601C8B2FFF776FD30
:10378000FFF7F4FD20B1FFF7CBFD0120BDE8F0818C
:103790003846FFF76BFDFFF7E9FDFFF79BFD0121C1
:1037A00001EB4601C8B2FFF761FDFFF7DFFD0DE059
:1037B000012C04D10020FFF723FD287003E0012035
:1037C000FFF71EFD2870601EC4B26D1C002CEFD1E7
:1037D000FFF7A6FD0020D9E710B50446E006010E6C
:1037E0001C2000F043F810BD10B50446E006010EA1
:1037F0001B2000F03BF810BD70B504460025BC2C22
:1038000001DB012510E0622C01DB02250CE02A2CF3
:1038100001DB032508E0142C01DB042504E00A2C5D
:1038200001DB052500E0062529461A2000F01EF8D8
:1038300070BD70B50446B4F57A7F01DD4FF47A743B
:10384000042C00DA04244FF47A7090FBF4F0401E4C
:10385000C5B22946192000F009F80546264604EBB2
:10386000D671C1F34F00FFF7C7FF70BD70B50546B5
:103870000C46FFF72FFDD020FFF7F8FCFFF776FD91
:1038800018B1FFF74DFD012070BD2846FFF7EEFC93
:10389000FFF76CFD2046FFF7E9FCFFF767FD18B165
:1038A000FFF73EFD0120EFE7FFF73AFD0020EBE7D1
:1038B0002DE9F04105460E4617469846FFF70AFDEA
:1038C000002141EA4501C8B2FFF7D0FCFFF74EFDE9
:1038D00020B1FFF725FD0120BDE8F0813046FFF75C
:1038E000C5FCFFF743FD00240CE018F80400FFF7C7
:1038F000BDFCFFF73BFD18B1FFF712FD0120EBE720
:10390000601CC4B2BC42F0DBFFF70AFD0020E3E715
:1039100000BFFEE730B587B005460C461C2168465F
:10392000FCF7B7FC114812490860084644600021C2
:103930008160C560FEF707FE6020009000200190C6
:1039400002200290002269460948FEF77EFD002110
:103950000748FEF7A3FF042269460548FEF775FDF8
:1039600004210348FEF79AFF07B030BD000C004069
:10397000AC03002030B587B005460C461C216846D4
:10398000FCF787FC1A481B49086008464460002180
:103990008160C560FEF7D7FD602000900020019097
:1039A00002200290082269461248FEF74EFD0821C7
:1039B0001048FEF773FF0C2269460E48FEF745FDDE
:1039C0000C210C48FEF76AFF002269460948FEF701
:1039D0003CFD00210748FEF761FF042269460548C7
:1039E000FEF733FD04210348FEF758FF07B030BD52
:1039F00000080040CC04002030B587B005460C46D6
:103A00001C216846FCF745FC11481249086008462D
:103A1000446000218160C560FEF795FD6020009044
:103A20000020019002200290002269460948FEF71A
:103A30000CFD00210748FEF731FF042269460548C6
:103A4000FEF703FD04210348FEF728FF07B030BD51
:103A5000000001403C04002030B587B005460C460C
:103A60001C216846FCF715FC1A481B4908600846EB
:103A7000446000218160C560FEF765FD6020009014
:103A80000020019002200290082269461248FEF7A9
:103A9000DCFC08211048FEF701FF0C2269460E48A5
:103AA000FEF7D3FC0C210C48FEF7F8FE0022694615
:103AB0000948FEF7CAFC00210748FEF7EFFE042282
:103AC00069460548FEF7C1FC04210348FEF7E6FEFF
:103AD00007B030BD000401408404002030B587B039
:103AE00005460C461C216846FCF7D3FB11481249D9
:103AF00008600846446000218160C560FEF723FD30
:103B0000602000900020019002200290002269466F
:103B10000948FEF79AFC00210748FEF7BFFE042281
:103B200069460548FEF791FC04210348FEF7B6FEFE
:103B300007B030BD00400140F403002030B587B02D
:103B400005460C461C216846FCF7A3FB11481249A8
:103B500008600846446000218160C560FEF7F3FC00
:103B6000602000900020019002200290002269460F
:103B70000948FEF76AFC00210748FEF78FFE042281
:103B800069460548FEF761FC04210348FEF786FEFE
:103B900007B030BD00180040140500207047000039
:103BA000002025E000EB4001144A02EB8101097975
:103BB000E1B900EB400132F82110491C89B200EB59
:103BC00040020E4B23F8221000EB400203EB82026E
:103BD000528891420ADB002100EB400223F82210B8
:103BE000012100EB400203EB82021171411CC8B2BB
:103BF000034909788842D5DB704700002000002087
:103C000080000020FFF72EFA00241EE005F0F6F9F0
:103C100004EB44000D4901EB8000007968B104EB2E
:103C200044010A4A02EB810188688047002004EBC6
:103C30004401064A02EB81010871601CC0B20446CF
:103C400003490978884200DB0024DFE720000020D8
:103C5000800000207047704770B502460C46FF2573
:103C6000FF2309E012F8010B80EA05010648405CD9
:103C700080EA03050548435C201EA4F10106B4B2A6
:103C8000F0D143EA052070BDB6D10008B6D20008D5
:103C900070B5284890F8680000B970BD254890F8C4
:103CA0006600801E81B22348401CFFF7D5FF044602
:103CB000204890F86600401E1E49491C0A5C481EB8
:103CC00090F86600801E085C02EB002085B2AC42D2
:103CD00027D1481E4078491E0978884220D11548CE
:103CE000807811281BD2DFE800F0090A0B0C0F10B6
:103CF000111415161A1A1A1A1A1A17000FE00EE0E4
:103D00000DE000F08FF80AE009E008E000F01AF991
:103D100005E004E003E002E000F00EF800BF00E080
:103D200000BF0020034981F8660081F8680000BFE9
:103D3000B3E70000842F00202DE9F04136480179D7
:103D4000C07801EB002087B233488179407901EBDC
:103D500000201FFA80F8002513E0082000EB450141
:103D60002D48401C415C072000EB45022A48401CBE
:103D7000805C01EB00207919284A22F81100681CA8
:103D800085B24545E9DB24484078234981F869003C
:103D90000846817880F86A10C17880F86B10017944
:103DA00080F86C10417980F86D10817980F86E1080
:103DB00006216930FFF750FF04462046E11704EB67
:103DC00011610A0A144981F86F20E11704EB1161AF
:103DD0000912A4EB0121CAB20F4981F8702000BF7B
:103DE000012211030E48FDF715FD00BF002607E074
:103DF000094969318819012100F040F9701C86B227
:103E0000082EF5DB00BF00224FF480510448FDF777
:103E100001FD00BFBDE8F081842F00207408002060
:103E2000001402402DE9F04143480179C07801EBCC
:103E3000002087B240488179407901EB00201FFAC9
:103E400080F800253C48027829466D1C69304254B0
:103E5000032229466D1C42544FEA4800C11700EB6B
:103E600011610912A0EB0121CBB22A466D1C324927
:103E700069318B54002621E0B919304A32F811001B
:103E8000C11700EB1161C1F3072329466A1CD5B2A3
:103E9000294A69325354B919284A32F81100C11716
:103EA00000EB11610912A0EB0121CBB229466A1C7B
:103EB000D5B2214A69325354701CC6B24645DBDB89
:103EC00029461D486930FFF7C7FE04462046E11722
:103ED00004EB1161C1F3072329466A1CD5B2164AC7
:103EE00069325354E11704EB11610912A4EB01216B
:103EF000CBB229466A1CD5B20F4A6932535400BF6F
:103F0000012211030E48FDF785FC00BF002607E0E3
:103F1000094969318819012100F0B0F8701CC6B256
:103F2000AE42F5DB00BF00224FF480510448FDF79C
:103F300071FC00BFBDE8F081842F002074080020D0
:103F4000001402402DE9F041002442480179C07874
:103F500001EB002085B23F488179407901EB0020D8
:103F600086B23D4820F815603A4802782146641C24
:103F70006930425406222146641C42542846E917FF
:103F800005EB1161C1F307232246641C31496931F5
:103F90008B54E91705EB11610912A5EB0121CBB296
:103FA0002246641C2B4969318B543046F11706EBCD
:103FB0001161C1F307232246641C264969318B54E1
:103FC000F11706EB11610912A6EB0121CBB22246D3
:103FD000641C204969318B5421461E486930FFF723
:103FE0003BFE07463846F91707EB1161C1F307237B
:103FF0002246641C174969318B54F91707EB11618C
:104000000912A7EB0121CBB22246641C1149693188
:104010008B5400BF012211031048FDF7FBFB00BFCA
:104020004FF000080AE00B49693101EB080001215B
:1040300000F024F808F101001FFA80F8A045F2DB37
:1040400000BF00224FF480510448FDF7E3FB00BF9E
:10405000BDE8F081842F0020740800200014024085
:1040600010B54FF4165000F027F8012002490870EF
:10407000002081F8670010BD842F002070B5044631
:104080000D4600BF012211030948FDF7C3FB00BF25
:104090004FF47A732A4621460648FEF777FF00BFA1
:1040A00000224FF480510248FDF7B4FB00BF70BD01
:1040B000001402403008002010B586B0044600BF4E
:1040C00000BF002000904A48006840F020004849A6
:1040D00008600846006800F02000009000BF00BFA4
:1040E00000BF00BF00BF002000900846006840F0FD
:1040F000080008600846006800F00800009000BF53
:1041000000BF00BF00BF00BF00200090084600684D
:1041100040F0080008600846006800F008000090C1
:1041200000BF00BF00BF00BF00BF002000903048AC
:104130001030006840F400302D4910310860084606
:10414000006800F40030009000BF00BF00BF2020D6
:104150000190022002900120039002200490072089
:10416000059001A92348FDF741FA4020019001A9DB
:104170002048FDF73BFA4FF4805001900120029057
:1041800003900220049001A91B48FDF72FFA1B4859
:104190001B4908600846446000218160C1600161DC
:1041A00081610C214161FEF775FD15480068C0680A
:1041B00020F0400012490968C86011480068C068D2
:1041C00040F020000E490968C8602620FDF7B5FBC5
:1041D000022201212620FDF7C0FB00BF00224FF480
:1041E00080510548FDF716FB00BF06B010BD00006A
:1041F00030380240000C02400014024000440040ED
:104200003008002010B5FDF74DFB10BD03480068D5
:1042100040F47000014908607047000088ED00E03C
:1042200008480068006900F0010020B106480068F5
:10423000401C054908606FF00100024909680861E7
:1042400070470000C8050020BC00002010B50248DF
:10425000FEF72FF810BD00005C05002010B50268C5
:10426000294B98420ED0B0F1804F0BD0274B98428B
:1042700008D0274B984205D0264B984202D0264BB7
:10428000984203D122F070024B681A431E4B9842A9
:1042900020D0B0F1804F1DD01C4B98421AD01C4B3F
:1042A000984217D01B4B984214D01B4B984211D008
:1042B0001A4B98420ED01A4B98420BD0194B984289
:1042C00008D0194B984205D0184B984202D0184B91
:1042D000984203D122F44072CB681A4322F0800343
:1042E0004C6943EA040202608B68C3620B68836214
:1042F000054B984202D0084B984201D10B690363E9
:104300000123436110BD0000000001400004004093
:1043100000080040000C0040000401400040014043
:10432000004401400048014000180040001C0040CB
:104330000020004030B501F01F05012404FA05F308
:10434000046A9C430462046A01F01F0502FA05F541
:104350002C43046230BD000030B5056A25F001052C
:104360000562026A4368846924F0700424F003043F
:104370000D682C4322F002028D682A43104DA8429A
:1043800000D103E00F4DA84206D100BF22F0080281
:10439000CD682A4322F00402094DA84202D0094DFB
:1043A000A84207D123F4807323F400734D692B4393
:1043B0008D692B43436084614D684563026230BD63
:1043C000000001400004014030B5056A25F01005E9
:1043D0000562026A4368846924F4E04424F440746A
:1043E0000D6844EA052422F020028D6842EA051295
:1043F000124DA84200D103E0114DA84207D100BFE1
:1044000022F08002CD6842EA051222F040020B4DF4
:10441000A84202D00A4DA84209D123F4806323F4B4
:1044200000634D6943EA85038D6943EA8503436070
:1044300084614D688563026230BD00000000014068
:104440000004014030B5056A25F480750562026AF2
:104450004368C46924F0700424F003040D682C43FD
:1044600022F400728D6842EA0522124DA84200D162
:1044700003E0114DA84207D100BF22F40062CD68CD
:1044800042EA052222F480620A4DA84202D00A4D77
:10449000A84209D123F4805323F400534D6943EA21
:1044A00005138D6943EA05134360C4614D68C56314
:1044B000026230BD000001400004014030B5056AD1
:1044C00025F480550562036A4468C26922F4E0421B
:1044D00022F440720D6842EA052223F400538D68ED
:1044E00043EA0533084DA84202D0084DA84204D142
:1044F00024F480444D6944EA85144460C2614D68E7
:104500000564036230BD000000000140000401406A
:1045100070B506F0B3FF0548C08BA0F58244A03CFF
:104520000248008CA0F58045743D70BDF007002066
:1045300008B5164800680068C0F3401020B34FF477
:104540007A73012269461148FEF742FC104890F840
:104550006800012800D108BD9DF800100C4890F8B3
:10456000662090F86600401C094B83F86600581CD2
:1045700081540020194681F86500084690F86600CD
:10458000012801D181F8670000BFE4E75430002022
:104590009830002070B50546AC6B0020E085E084C3
:1045A0002046FEF74DFA70BD0168C96821F490718C
:1045B0000268D1600168496921F001010268516116
:1045C000016B012905D10168C96821F01001026859
:1045D000D160202180F83E1000210163704710B5A2
:1045E00004462068C06820F040002168C860202090
:1045F00084F83D002046FEF732FD002010BD70B566
:10460000044694F83E00222856D1A068B0F5805F99
:104610000CD1206950B90025A66A20684068C0F313
:1046200008003080A06A801CA06215E0A56A002600
:10463000A068B0F5805F03D0A06828B9206918B9D8
:1046400020684068287004E02068406800F07F001F
:104650002870A06A401CA062E08D401E80B2E085F8
:1046600040BB2068C06820F020002168C860206836
:10467000C06820F480702168C8602068406920F01C
:10468000010021684861202084F83E00206B012849
:104690000AD12068C06820F010002168C860A18D90
:1046A0002046FEF7CCF902E02046FEF721FC002070
:1046B000206370BD0020FCE70220FAE72DE9F84FE7
:1046C00004462068006920F44050E16808432168EE
:1046D00008612169A068084361690843E1690843EA
:1046E00000902068C06849F20C6188430099084333
:1046F0002168C8602068406920F44070A1690843BF
:104700002168486176492068884203D0754920684D
:10471000884203D1FDF74CFA814602E0FDF738FAF2
:104720008146E069B0F5004F6CD102206168A0FBC2
:10473000015003461920A9FB007001462A4638465D
:10474000FBF73EFD6421B0FBF1F04FEA001A0220B6
:104750006168A0FB01510B461920A9FB00712A4694
:104760003846FBF72DFD834602206168A0FB01500F
:1047700003461920A9FB00712A463846FBF720FDA5
:104780006421B0FBF1F000EBC00101EB0010ABEBDA
:104790008000322101EBC0006421B0FBF1F000F099
:1047A000F8000AEB400A02206168A0FB01500346B2
:1047B0001920A9FB007001462A463846FBF700FD88
:1047C000834602206168A0FB015003461920A9FB23
:1047D00000712A463846FBF7F3FC6421B0FBF1F088
:1047E00000EBC00101EB0010ABEB8000322101EBCC
:1047F000C0006421B0FBF1F000F0070050442168D4
:1048000088606AE004206168A0FB0150034619201B
:10481000A9FB007001462A463846FBF7D1FC8246C8
:1048200004206168A0FB015003461920A9FB007019
:1048300001462A463846FBF7C3FC6421B0FBF1F081
:1048400000EBC00101EB0010AAEB8000322101EB6C
:1048500000106421B0FBF1F000F0F00A0420616860
:10486000A0FB017003461920A9FB00513A462846D7
:10487000FBF7A6FC6421B0FBF1F00AEB001A042060
:104880006168A0FB01510B461920A9FB00712A4663
:104890003846FBF795FC834604206168A0FB015075
:1048A00003461920A9FB007001462A463846FBF74B
:1048B00087FC6421B0FBF1F000EBC00101EB0010BC
:1048C000ABEB8000322101EB00106421B0FBF1F072
:1048D00000F00F00504421688860BDE8F88F0000A8
:1048E000001001400014014010B5034699629A85FA
:1048F000DA8500201864222083F83E0000BF0020E3
:1049000083F83C0000BF1868C06840F480701C68E1
:10491000E0601868406940F001001C686061186838
:10492000C06840F020001C68E060002010BD014617
:1049300091F83D00212828D18868B0F5805F0BD11F
:10494000086948B90A6A1088C0F308000B68586003
:10495000086A801C086205E00B6A581C0862187817
:104960000B685860C88C401E80B2C88458B908686B
:10497000C06820F080000B68D8600868C06840F00C
:1049800040000B68D860002070470220FCE72DE94A
:10499000F04104460D4617469846069E21E0701CDD
:1049A000F8B12EB1FCF742FFA0EB0800B04218D9D5
:1049B0002068C06820F4D0702168C8602068406911
:1049C00020F0010021684861202084F83D0084F82F
:1049D0003E0000BF002084F83C0000BF0320BDE87B
:1049E000F081206800682840A84201D1012000E041
:1049F0000020B842D3D00020F1E7000010B50248F3
:104A0000FEF720F810BD00001802002008B5164877
:104A100000680068C0F3401020B34FF47A7301229D
:104A200069461148FEF7D4F9104890F8680001284B
:104A300000D108BD9DF800100C4890F8662090F851
:104A40006600401C094B83F86600581C8154002006
:104A5000194681F86500084690F86600012801D1E2
:104A600081F8670000BFE4E730080020842F0020B1
:104A7000F0B52DED048B85B000240025002600271D
:104A800076488068002808DD74498968A1F5FA70C5
:104A9000FBF79FFD724A03C211E07048806800284E
:104AA00008DA6E49896801F5FA70FBF792FD6C4AE5
:104AB00003C204E09FED6B0B694880ED000B684872
:104AC00090ED001BB0EE410AF0EE610A9FED671B0E
:104AD00006F09CFA624880ED000B6048C068002830
:104AE00009DD5E49C968A1F5FA70FBF772FD5C4A01
:104AF000C2E9020112E05948C068002809DA5749A2
:104B0000C96801F5FA70FBF764FD554AC2E9020174
:104B100004E09FED540B524880ED020B504890ED9D
:104B2000021BB0EE410AF0EE610A9FED501B06F049
:104B3000D3FA4B4880ED020B9FED4E0B80ED040B3A
:104B40000C2047490876022048760B4610330FCBDD
:104B50008DE80F0042480FC806F078FD474890EDF9
:104B6000161BB0EE410AF0EE610A53EC102B9FEDDC
:104B7000441B51EC110BFBF745FC41EC190B9FED6D
:104B8000420B53EC102BFBF743FC41EC180BFBF7EB
:104B90005DFD84B2394890ED181BB0EE410AF0EE8D
:104BA000610A53EC102B9FED361B51EC110BFBF7F8
:104BB00029FC41EC190B9FED340B53EC102BFBF748
:104BC00027FC41EC180BFBF741FD85B22B4890ED1B
:104BD0001A1BB0EE410AF0EE610A53EC102B9FED68
:104BE000281B51EC110BFBF70DFC41EC190B9FED51
:104BF000280B53EC102BFBF70BFC41EC180BFBF7CD
:104C000025FD86B21D4890ED1C1BB0EE410AF0EE6A
:104C1000610A53EC102B9FED1A1B51EC110BFBF7A3
:104C2000F1FB41EC190B9FED1A0B53EC102BFBF72A
:104C3000EFFB41EC180BFBF709FD87B21648006843
:104C40004463154800688563144800684663134848
:104C50000068876305B0BDEC048BF0BD8C070020B5
:104C6000A805002000000000000000000000000077
:104C700000003940000000000000284008330020F8
:104C8000000000000000F03F00000000000059405C
:104C90000000000000006940AC030020F403002085
:104CA00000BFFEE70346994201DB914201DD084661
:104CB00070470020FCE710B52DED068BB0EE40AA42
:104CC000F0EE60AAB0EE418AF0EE618AB0EE429A50
:104CD000F0EE629A53EC182B51EC1A0BFBF7FAFC2E
:104CE00006D2B0EE4A0AF0EE6A0ABDEC068B10BDA1
:104CF00053EC192B51EC180BFBF7ECFC04D2B0EE83
:104D0000490AF0EE690AF0E7B0EE480AF0EE680AE8
:104D1000EBE700000FB4054B10B503A9044A029855
:104D200002F094F810BC5DF814FB0000E186000866
:104D30000800002003B401984100009850EAC12007
:104D400018BF04204A0D18BF40F0010040F2FF7266
:104D5000B2EB515F08BF40F00200012808BF0520F8
:104D600002B070474100080218BF04200A0E18BFA5
:104D700040F001004FF07F4232EA010108BF40F0ED
:104D80000200012808BF05207047000002480068A3
:104D9000C0F30220704700000CED00E010B50028C1
:104DA00004DB0A07130E054A135406E00A07140E23
:104DB000034A00F00F031B1FD45410BD00E400E0B1
:104DC00018ED00E00000000070B5C1482DED020BA9
:104DD0002DED0E8B82B0119D25F000449FEDBEDBC2
:104DE0009FEDBFEB84423EDBA4F140511098A1F14E
:104DF0007F6108430FD0BC48844202DC28D1109860
:104E000030B39DED100B02B0BDEC0E8B02B0BDE8CF
:104E1000704001F0ADBF9DED100B53EC1D2B51EC1C
:104E2000100BFBF7F5FA9DED100B41EC180B53EC52
:104E30001E2B51EC100BFBF7EBFA53EC182BFBF786
:104E400040FA41EC100B02B0BDEC0E8B02B070BD0D
:104E5000012001F0F5FF02B0BDEC0E8B02B0BDE801
:104E6000704001F099BFA1489FEDA18B844256DAB2
:104E70009DED100BB4F1795F0ADA51EC100BFFF7DE
:104E800059FF042808BF01F0A7FF9DED100BDAE7DA
:104E900053EC102B51EC100BFBF7BAFA41EC190B49
:104EA00095480621B0EE490AF0EE690A784401F00F
:104EB00023FD53EC192B51EC100BFBF7A9FA41EC35
:104EC0001A0B8E48B0EE490AF0EE690A04217844C4
:104ED00001F012FD53EC192B51EC100BFBF798FA73
:104EE00053EC182BFBF7EDF941EC100B51EC1A0BBE
:104EF00053EC102BFBF7FEFACDE900019DED000B02
:104F000053EC102B9DED100B51EC100BFBF780FABE
:104F10009DED101B53EC112BFBF7D3F9D2E09DED67
:104F2000100B51EC100B03F0CFFB53EC182BFBF7DD
:104F30006CFA9FED730BCDE9000153EC102B9DED46
:104F4000000B51EC100BFBF763FA41EC190B6E48A8
:104F50000621B0EE490AF0EE690A784401F0CCFC73
:104F600053EC192B51EC100BFBF752FA41EC1B0BD5
:104F70006648B0EE490AF0EE690A0421784401F06F
:104F8000BBFC53EC192B51EC100BFBF741FA53EC23
:104F9000182BFBF796F941EC1C0B51EC190B06F0A2
:104FA00001F941EC180B5A489FED5BABA04222DCA3
:104FB00053EC1C2B51EC1B0BFBF79CFACDE90001C9
:104FC0009DED000B51EC180B53EC102BFBF720FA66
:104FD00053EC182BFBF775F953EC1A2BFBF718FA67
:104FE00053EC1D2BFBF70EFA53EC1E2BFBF70DFABF
:104FF00041EC100B5FE08DED008B002000909DEDEB
:10500000000B51EC180B53EC102BFBF75AF99DEDEC
:10501000000B41EC1E0B53EC102B51EC100BFBF76B
:10502000F7F953EC192BFBF7F0F953EC1E2BFBF7B8
:1050300061FA41EC190B53EC1C2B51EC1B0BFBF7E9
:1050400059FA41EC1B0B53EC1A2B51EC190BFBF7E3
:10505000DFF953EC1D2BFBF7D8F941EC190B53EC9E
:105060001A2B51EC180BFBF7D3F953EC1B2BFBF766
:10507000CFF953EC192BFBF7C5F99DED000B41EC73
:10508000180B53EC1A2B51EC100BFBF7C1F99FEDE9
:10509000249B53EC192BFBF7B8F941EC100B51ECA6
:1050A000180B53EC102BFBF7ADF953EC192BFBF756
:1050B000ACF941EC100B002D3FF7C5AE51EC100BD5
:1050C00081F0004141EC100BBDE600000000000043
:1050D0000000F03F00000000075C143326A6913C5E
:1050E000182D4454FB21F93F0000F07F0000E03F01
:1050F000000000000000F03F108500001E85000049
:10510000000000000000E03F6284000070840000A6
:105110003333EF3F000000000000000000000040BB
:10512000182D4454FB21E93F70B59B482DED020B2F
:105130002DED068B079D25F00044A04218DC974812
:10514000844202DC0AD1069840B19DED060BBDEC0D
:10515000068B02B0BDE8704001F00ABE002DCCBF46
:105160009FED8F0B9FED900BBDEC068B02B070BDD9
:105170008F48A04215DD8F48A042D8BF4FF0FF34C2
:1051800058DD9DED060B51EC100BFFF7D3FD042805
:1051900008BF01F021FE9DED060BBDEC068B02B0B1
:1051A00070BD9DED060B51EC100B03F08DFACDE9AF
:1051B000060181489FED828BA0423CDD8248A042DF
:1051C0001FDD00249FED82AB9DED060B53EC1A2BE7
:1051D00051EC100BFBF775F89DED060B41EC190B2C
:1051E00053EC1A2B51EC100BFBF712F953EC182B64
:1051F000FBF708F953EC192BFBF77CF9CDE9060115
:1052000049E09DED060B012453EC182B51EC100BDB
:10521000FBF757F89DED060B41EC190B53EC182BDF
:1052200051EC100BFBF7EEF853EC192BFBF762F97E
:10523000CDE906012FE06848A0421FDD02249FED62
:10524000689B9DED060B53EC192B51EC100BFBF7F3
:10525000DFF853EC182BFBF734F89DED060B41EC0F
:10526000180B53EC192B51EC100BFBF7CBF853EC4C
:10527000182BFBF73FF9CDE906010CE09DED060B7D
:10528000032453EC102B9FED580B51EC100BFBF744
:1052900031F9CDE906019DED060B53EC102B51ECD5
:1052A000100BFBF7B5F841EC180B53EC182BFBF780
:1052B000AFF841EC190B4E480621B0EE490AF0EE6A
:1052C000690A784401F018FB53EC182B51EC100BD1
:1052D000FBF79EF841EC180B4648B0EE490AF0EE99
:1052E000690A0521784401F007FB53EC192B51ECB6
:1052F000100BFBF78DF841EC100B51EC180B53EC35
:10530000102B002C0EDAFAF7DCFF9DED061B53EC98
:10531000112BFBF77DF89DED061B53EC112BFBF7D2
:1053200074F835E0FAF7CDFF9DED061B53EC112B19
:10533000FBF76EF841EC100B2F48784400EBC400EB
:1053400090ED001B51EC100B53EC112BFBF75AF8AE
:105350009DED061B53EC112BFBF754F841EC100BA1
:105360002648784400EBC40090ED001B51EC100B74
:1053700053EC112BFBF749F841EC100B002DA2BFA9
:10538000BDEC068B02B070BD51EC100B81F00041FA
:1053900041EC100B01E70000000010440000F07F1A
:1053A000182D4454FB21F93F182D4454FB21F9BF1B
:1053B0000000DC3F0000203E0000F33F0000000042
:1053C000000000000000F03F0000E63F0000000089
:1053D00000000000000000400080034000000000CA
:1053E000000000000000F83F000000000000F0BFD7
:1053F000B281000068810000F2800000AA800000F5
:1054000070B56B4E2DED040B2DED028B82B0DDF8E7
:105410001CC0DDE905235C422CF000411C4341EA3D
:10542000D474049D22F00040B44205D86C422C4351
:1054300040EAD474B4420BD99DED061B9DED040BDC
:1054400002B0BDEC028B04B0BDE8704001F09ABC24
:10545000ACF14054A4F17F641C430BD0022404EA55
:10546000AC7444EAD27405439FED538B9FED542BEB
:1054700007D015E09DED040B51EC100B02F0EBF999
:1054800042E0002C11BF012C9DED040B02B0BDECDD
:10549000028B04BF04B070BD022C38D0032C3BD06B
:1054A0000B439FED491B9FED4A0B0AD0B14218D127
:1054B000B04209D121F0804120F080400791059051
:1054C0000FE0002A15DA10E0434B7B44002C08BFA4
:1054D00093ED000B0DD0012C10D0022C17D0032C13
:1054E0001AD0B0421DD1002A03DAB0EE410AF0EE24
:1054F000610A02B0BDEC028B04B070BD93ED000BED
:1055000051EC100B81F0004141EC100BF1E7B0EED3
:10551000480AF0EE680AECE7B0EE420AF0EE620AE2
:10552000E7E7401A00153C28C8BF8DED000B19DCD9
:10553000BCF1000FBEBF10F13C0F9FED290B8DEDAC
:10554000000B0FDB9DED060B53EC102B9DED040BB8
:1055500051EC100BFAF7CEFF03F0B6F802F07BF92E
:10556000CDE90001002C08BF9DED000BC1D0012C3E
:1055700010D0022C9FED1C0B53EC102B9DED000B5B
:1055800051EC100B0DD0FAF73DFF53EC182BFAF746
:1055900039FFB9E7019880F0004001909DED000BC4
:1055A000A7E7FAF72FFF53EC182BFAF72EFFABE71C
:1055B0000000F07F00000000182D4454FB2109403A
:1055C000182D4454FB2109C0182D4454FB21F9BF68
:1055D000182D4454FB21F93F928000000000000088
:1055E0000000000000000000075C143326A6A13C68
:1055F00010B510EE104A4FF019406849002200EB38
:1056000044002DED028B884257D8DFED650A14F077
:10561000004F60EE200A14BFBEEE001AB6EE001A6C
:1056200071EE200AFDEEE00A10EE900A00EE900AFC
:10563000F8EEE00A9FED5B1A00EEC10A9FED5A1AE0
:1056400000EEC10ADFED590A9FED591A00EE201A4B
:10565000DFED580A40EE010A9FED571A574B00F054
:10566000030100EE201A21EE000A7B4403EB8103C4
:10567000D3ED000A524B7B4403EB810393ED001AF8
:10568000504B41EE000A7B4403EB8101801091ED09
:10569000000A70EE800AEABB00EE100AB8EEC01AEB
:1056A000DFED491A9FED490ABDEC028B01EE210A9C
:1056B000BCEEC00A20EE200A10BD4FF0FF40A04310
:1056C0001BD04FF0CE40B0EB440F82BFB7EE000AC4
:1056D000BDEC028B10BD3E48B0EB440F28BF012249
:1056E00093D2022001F0ACFB14F0004F15D0BDECBA
:1056F000028BBDE8104001F08BBB14F5000F02BF18
:105700009FED340ABDEC028B10BDBDEC028BBDE8F1
:10571000104000E007E001F06FBBBDEC028BBDE87C
:10572000104001F06DBB00EBD07359104FF07E526A
:1057300002EBC15100EE101AA0EB630002EBC05067
:1057400060EE200A00EE100A20EE208A18EE100A01
:1057500088B118EE100AB0F1FF4F15D018EE100AFC
:10576000FFF700FB042808BF01F052FBB0EE480A27
:10577000BDEC028B10BD022001F062FBBDEC028B80
:10578000BDE8104001F044BB022001F059FBBDEC24
:10579000028BBDE8104001F033BB00000000501E3A
:1057A0003BAAB8400070313EF4FD053712BB2A3DDC
:1057B00012BB2A3EFFFFFF3EFFFF7F3F4A7E0000F5
:1057C0004E7E00001E7E00000000004B00007E4E5A
:1057D0000000A085000000002DED020B019820F0D4
:1057E000004001909DED000B02B0704700000000EA
:1057F0002DE9F04D2DED040B2DED0E8B96B0DDE96E
:105800002550279CDDF890A025F0004624F00048A4
:10581000BAF1000F14BF0121002101EB4502FC4940
:1058200053184A1093422AD3002814BF012300239F
:1058300003EB44030B44F7498B4220D358EA0001A1
:105840009FEDF59B76D0DFF8D8B35D4503D1BAF173
:10585000000F05D188E0BAF1000F08BF002100D089
:10586000012101EB450111F5001F08D8002814BFE4
:105870000121002101EB440111F5001F0BD99DED21
:10588000261B9DED240B16B0BDEC0E8B04B0BDE8BD
:10589000F04D01F077BA0027002DBCBFE1498845E3
:1058A00021DAE1498845A8BF02271CDAC3451ADC82
:1058B000DE4901EB2851142908DDC1F1340220FA38
:1058C00002F101FA02F282420DD108E058B9C1F1A9
:1058D000140228FA02F101FA02F2424503D101F062
:1058E0000101C1F1020756EA0A0124D1002C22DA93
:1058F000002D18BF022F01D0012F0AD0022001F085
:105900009FFA16B0BDEC0E8B04B0BDE8F04D01F06F
:1059100017BA022001F094FA01F012FA51EC100BC0
:1059200081F0004141EC100B16B0BDEC0E8B04B0C1
:10593000BDE8F08D18E09FEDBEAB9FEDBF8B00285A
:1059400071D1B848804522D105F1804010F5801012
:1059500008BFBAF1000F07D0B3450ADC002CA8BF7E
:105960009DED260BE0DA0DE0B0EE490AF0EE690A93
:10597000DAE7002C06DA9DED260B51EC100B81F0D6
:1059800000416FE0AE48784490ED000BCCE7D8457D
:105990004DD1002C48DA2EB186423AD1BAF1000F2F
:1059A00042D126E0BAF1000F13D0022001F048FAEC
:1059B00001F002FA8DED020B9DED240B8DED000B35
:1059C00010EE900A039961F31E0003909DED020B07
:1059D000AAE78DED02AB9DED240B1AEE901A10EEA6
:1059E000900A8DED000B61F31E0003909DED020BFC
:1059F0009AE78DED028B9DED240B18EE901A10EEB8
:105A0000900A8DED000B61F31E0003909DED020BDB
:105A10008AE709DA9DED240B51EC190B53EC102B9E
:105A2000FAF768FD1EE020E09DED240B7CE786423E
:105A30001BDAB4F1804F0DD0A4F10050B0F1FF504B
:105A400013D1002D11DB9DED240B51EC100B05F053
:105A5000A9FB07E09DED240B53EC102B51EC100B30
:105A600000F0C2BC41EC100B5EE79DED240B51EC45
:105A7000100B02F029FEBAF1000FCDE90E0142D160
:105A80009FED710B46B3A6F1E040B0F17F600CD002
:105A90005E4538D1002D00DAA7B3022F0CBF0120DC
:105AA0004FF0FF30FAF795FDDCE7002D01DD002C0B
:105AB0000DDA002D01DD002C1FDB002D16DA002C85
:105AC00014DB012F08BF9FED620B3FF42DAFB0EE4A
:105AD0004A0AF0EE6A0A27E7022F18BF002D0CD001
