:020000040800F2
:10000000400C00209D010008DD350008912D0008FE
:1000100051330008B50B00083D4000080000000007
:100020000000000000000000000000008F36000803
:10003000550D0008000000008D36000891360008BC
:10004000B7010008B7010008B7010008B7010008B0
:10005000B7010008B7010008B7010008B7010008A0
:10006000B7010008B7010008B7010008B701000890
:10007000B7010008B7010008B7010008B701000880
:10008000B7010008B7010008B7010008B701000870
:10009000B7010008B7010008B7010008B701000860
:1000A000B7010008B7010008B7010008B701000850
:1000B000B7010008AD360008B7010008B701000815
:1000C000B7010008B7010008B7010008B701000830
:1000D000B7010008053E0008153E0008B7010008FA
:1000E000B7010008B7010008B7010008B701000810
:1000F000B7010008B7010008B7010008B701000800
:10010000B7010008B7010008B7010008B7010008EF
:10011000B7010008B7010008D9360008B701000888
:10012000B7010008B90B0008B7010008B7010008C3
:10013000E90B0008B7010008B7010008B701000883
:10014000B7010008B7010008B7010008B7010008AF
:10015000B7010008B7010008B7010008B70100089F
:10016000B7010008B7010008B7010008B70100088F
:10017000B7010008B7010008B7010008000000003F
:10018000B7010008B7010008DFF80CD000F090FBC1
:1001900000480047B1740008400C00200648804722
:1001A00006480047FEE7FEE7FEE7FEE7FEE7FEE75C
:1001B000FEE7FEE7FEE7FEE7993600088901000842
:1001C0002DE9F05F0546002092469B46884606468C
:1001D000814640241BE0284641464746224600F01F
:1001E000B0FA53465A46C01A914110D311461846E8
:1001F000224600F097FA2D1A67EB01084F46224677
:100200000120002100F08EFA17EB00094E41201E5C
:10021000A4F10104DFDC484631462A464346BDE8E6
:10022000F09F2DE9F0410024061B254671F10006E0
:1002300005DA01240027D0EB070067EB0101161E49
:1002400073F1000605DA0027D2EB0702012567EB00
:100250000303FFF7B5FF86460E4617469C46AC42A1
:1002600004D00025D0EB050E65EB010624B100207B
:10027000D2EB000760EB030C704631463A4663460A
:10028000BDE8F081D2B201E000F8012B491EFBD29B
:1002900070470022F6E710B513460A460446194691
:1002A000FFF7F0FF204610BD30B50446002003469E
:1002B00000E05B1C934203D2E05CCD5C401BF8D0B5
:1002C00030BD2DE9FE4F804681EA0300C00F0C4689
:1002D000009021F0004123F00045B8EB0200A94155
:1002E00005D24046214690461C460B46024623F066
:1002F0000040104347D0270DC7F30A00C3F30A514B
:100300000290401A019040286BDAC3F3130040F4C6
:10031000801B0098924620B10023D2EB030A63EBC6
:100320000B0B01985946C0F14002504600F0FAF913
:1003300006460D4650465946019A00F012FA10EB57
:1003400008006141002487EA115284EAE7731A43E6
:1003500040D0009A62B3019A012A4FEA075215DC95
:10036000001B61EB02014FF0004202EA0752CDE9A7
:100370000042001C41F5801132462B4600F049FA3C
:1003800003B0BDE8F08F40462146F9E7001B61EB62
:100390000201001C41F5801300185B412018A2F5F2
:1003A000001747EB030140EAD570B6196D4111E023
:1003B0006D084FEA360645EAC0754FEA0752001B42
:1003C00061EB0201001C41F5801149084FEA300041
:1003D0000019514132462B4603B0BDE8F04F00F002
:1003E00009BA0098012240000023D0EB020263EB1F
:1003F000E073009821464FEAE074B8EB000061EB2F
:100400000401E9E783F000435BE781F0004158E72E
:100410002DE9FE4F81EA030404F0004421F000417D
:1004200000944FF0000B23F0004350EA01045ED02B
:1004300052EA03045BD0C3F30A54C1F30A552C44B7
:10044000A4F2F3340194A0FB0254C1F3130141F46C
:100450008011C3F3130343F4801301FB024400FB38
:10046000034E840A970A44EA815447EA8357A4FB5F
:10047000076802958D0A05FB07854FEA932C04FB5C
:100480000C542705029D4FEA065847EA1637B5EB8C
:1004900008056EEB070C870E920E47EA811742EAB9
:1004A0008312A7FB0201B6EB0B0164EB00042B0DDA
:1004B00043EA0C335E1844EB1C50DA465146E7FB26
:1004C0000201C5F313044FEA0B3343EA14534FEA16
:1004D0000432019C43EA0603A4F10C040294009C3C
:1004E000CDE900B400F095F903B0BDE8F08F00202D
:1004F0000146F9E72DE9F04D81EA030404F0004BD1
:1005000021F0004514464FF0000A23F0004150EA64
:10051000050220D054EA01021DD0C5F30A57024655
:10052000C5F31303C1F31300C1F30A5640F4801559
:1005300043F48013A7EB0608101BD64608F2FD38DB
:1005400073EB050002D308F1010801E092185B414A
:10055000B8F1000F03DA00200146BDE8F08D00205D
:100560004FF48011064684460EE0171B73EB050717
:1005700005D3121B63EB050306434CEA010C490843
:100580004FEA300092185B4150EA0107EDD152EA80
:10059000030012D082EA040083EA0501084305D073
:1005A000101BAB4106D20122002306E000224FF0CF
:1005B000004302E06FF0010253101AEB06004CEB0F
:1005C000085110EB0A0041EB0B01BDE8F04D00F0C3
:1005D00011B90EB5C10F80EAE0700844CA070021C6
:1005E00040F233438DE80E000A460B4600F011F945
:1005F00003B000BD70B5C1F30A5201F000450024FC
:10060000C1F3130140F2FF3341F480119A4201DA41
:10061000002070BD40F233439A42A2F2334203DC21
:10062000524200F08EF800E090402C43F1D040425E
:1006300070BDC1F30A5210B5C1F3130140F2FF338C
:1006400041F480119A4201DA002010BD40F2334398
:100650009A42A2F2334203DC524200F072F810BD1B
:10066000904010BD00F0004230F000400AD0C10DB3
:1006700001F56071C0F3160042EA0151C20840075B
:1006800011437047002001467047000030B5041E3A
:1006900071F1000404DB4FF00044404264EB0101BF
:1006A000141E73F1000405DB1C464FF00043524258
:1006B00063EB04038B4208BF824230BD30B5041E99
:1006C00071F1000404DB4FF00044404264EB01018F
:1006D000141E73F1000405DB1C464FF00043524228
:1006E00063EB0403994208BF904230BD01F0004320
:1006F00030B421F0004150EA010206D00A0DA2F503
:100700006072C1F31301002A02DC30BC0020704784
:10071000440F44EAC104C100E01830BC00EBC250F1
:1007200000F031B8202A04DB203A00FA02F1002060
:1007300070479140C2F1200320FA03F3194390401F
:100740007047202A04DB203A21FA02F0002170478A
:1007500021FA02F3D040C2F1200291400843194629
:100760007047202A06DBCB17203A41FA02F043EA11
:10077000E07306E041FA02F3D040C2F1200291405A
:100780000843194670470029A8BF7047401C49001C
:1007900008BF20F00100704710B4B0FA80FC00FAE6
:1007A0000CF050EA010404BF10BC704749B1CCF111
:1007B000200421FA04F411FA0CF118BF012121439D
:1007C0000843A3EB0C01CB1D4FEA00614FEA102058
:1007D00042BF002010BC704700EBC35010440029FA
:1007E000A4BF10BC7047401C490008BF20F00100A6
:1007F00010BC704710B5141E73F1000408DA401CD9
:1008000041F1000192185B411A4301D120F001002F
:1008100010BD2DE9F04D92469B4611B1B1FA81F21F
:1008200002E0B0FA80F220329046FFF77BFF0446E8
:100830000F4640EA0A0041EA0B0153465A46084374
:1008400013D0114653EA010019D0C8F140025046B6
:10085000FFF777FF05460E46504659464246FFF7DA
:1008600061FF084305D0012004E020463946BDE879
:10087000F08D0020054346EAE0762C4337430A9882
:100880006305E40AA0EB08000022FD0A44EA47548D
:100890000A3002D500200146E9E701051019694137
:1008A000DDE9084500196941BDE8F04DA2E7000007
:1008B000064C074D06E0E06840F0010394E80700AD
:1008C00098471034AC42F6D3FFF762FC48AB0008FF
:1008D00068AB00082DE9F04D00231A461B1A8A4127
:1008E00003DB00200146BDE8F08DC1F30A52C1F3DD
:1008F000130141F480154FF0000BD10702D100180D
:100900006D41521E0027044640F2FF11384601EBAC
:10091000620A3E468046024600204FF48011FFF7EF
:1009200010FFC2197141BB1846EB0100B4EB030C78
:1009300075EB000C04D3E41A65EB000517460E4670
:10094000241908F101006D4180463428E3DDF919CE
:1009500046EB0600091BA84103D24FF0FF321346B5
:1009600001E0002213461BEB070046EB0A51BDE8ED
:10097000F04DFFF73FBF70B50546AC6B206C00F043
:10098000500050BB206C40F40070206420688068E8
:1009900000F04050E8B9207ED8B92068C06A00F461
:1009A000700020B12068806800F4806088B92068F9
:1009B000406820F0200021684860206C20F480709E
:1009C0002064206C00F4805018B9206C40F00100C5
:1009D0002064204600F0A6FA0BE0206C00F0100026
:1009E00018B1204600F0A0FA03E0A06BC16C2846C5
:1009F000884770BD70B50546AC6B40202064606CC4
:100A000040F004006064204600F08EFA70BD70B5BE
:100A10000446A56B284600F086FA70BD55494A6821
:100A200022F440324A604A6843681A434A600268C6
:100A3000526822F4807203685A600268536802693F
:100A400043EA022203685A600268526822F0407248
:100A500003685A600268526883681A4303685A60E0
:100A60000268926822F4006203689A6002689268E1
:100A7000C3681A4303689A603F4B826A9A4218D04F
:100A80000268926822F0706203689A600268926855
:100A9000836A1A4303689A600268926822F040529F
:100AA00003689A6002689268C36A1A4303689A608E
:100AB0000BE00268926822F0706203689A60026834
:100AC000926822F0405203689A600268926822F0AD
:100AD000020203689A6002689368027E43EA420257
:100AE00003689A602022125CA2B10268526842F444
:100AF000006203685A600268526822F46042036828
:100B00005A6002685368426A521E43EA42320368DE
:100B10005A6005E00268526822F4006203685A6075
:100B20000268D26A22F470020368DA620268D36A49
:100B3000828B521E43EA02520368DA6202689268AC
:100B400022F4007203689A600268936890F830207B
:100B500043EA422203689A600268926822F4806243
:100B600003689A6002689368426943EA82220368D4
:100B70009A607047002301400100000F10B50B4838
:100B800090F86800022809D0084890F86800052805
:100B900004D0064890F86800062805D100BF20213F
:100BA000034800F039FD00BF10BD000058030020CD
:100BB0000008024000BFFEE70948006800F400603A
:100BC00060B101200749087000BF0548083000687F
:100BD00040F4006002490831086000BF704700001F
:100BE00000640240190000200948006800F020005D
:100BF00060B101200749087000BF0548083000684F
:100C000040F0200002490831086000BF7047000032
:100C100004640240180000200146087810381823A8
:100C2000B0FBF3F20848805CC865032A05D9086860
:100C30006FF30900001D886503E008686FF3090081
:100C40008865886D70470000FAA9000801460020F9
:100C50008A6A8B69CBB932B1012A0DD0022A03D03E
:100C6000032A10D10EE000BFCB6A03F08073B3F10A
:100C7000807F00D1012007E0CB6AB3F1C07F00D1B3
:100C8000012001E000E000BF34E08B69B3F5005FB4
:100C90001AD132B1012A07D0022A03D0032A11D176
:100CA0000AE000BF01200EE0CB6A03F08073B3F1CD
:100CB000807F00D1012006E0CB6AB3F1C07F00D174
:100CC000012000E000BF15E032B1012A05D0022A60
:100CD00004D0032A0CD103E000BF00BF012008E0CC
:100CE000CB6A03F08073B3F1807F00D1012000E074
:100CF00000BF00BF704730B50468246824F4802426
:100D000005682C60046863608468402C04D1046822
:100D1000A2600468E16003E00468A1600468E26026
:100D200030BD000000200A498860C8600861486141
:100D30008861C861086248628862C8620863486363
:100D40008863C863086448648864C86470470000A6
:100D5000940700207047000010B50821064807F0EE
:100D600081FD06480179C07801EB002084B221465C
:100D700003A003F09DF910BD90000020E1000020C9
:100D800044697374616E63653A25640A000000006B
:100D900010B505F0C3FE10BD38B502460020009026
:100DA00000BF92F83C00012801D1022038BD01208B
:100DB00082F83C0000BF0868092816D91068C0688E
:100DC0000C780A3C04EB44050724AC40A0431468AB
:100DD000E0600C780A3C04EB44048868A040146886
:100DE000E46820431468E06013E0106800690C7840
:100DF00004EB44050724AC40A043146820610C7840
:100E000004EB44048868A0401468246920431468F3
:100E100020614868072817D21068406B0C79641E5F
:100E200004EB84051F24AC40A04314686063088869
:100E300080B20C79641E04EB8404A0401468646BD7
:100E400020431468606331E048680D2817D21068A9
:100E5000006B0C79E41F04EB84051F24AC40A04315
:100E600014682063088880B20C79E41F04EB8404C2
:100E7000A0401468246B20431468206316E01068B7
:100E8000C06A0C790D3C04EB84051F24AC40A043E0
:100E90001468E062088880B20C790D3C04EB84048D
:100EA000A0401468E46A20431468E062194B1A4CAD
:100EB0001068A04206D10868122803D1586840F48F
:100EC00080005860144C1068A0421CD1086810289B
:100ED00002D00868112816D1586840F40000586004
:100EE000086810280FD10D4800680D4CB0FBF4F0D5
:100EF00000EB80004000009002E00098401E00904F
:100F000000980028F9D100BF002082F83C0000BF03
:100F100000BF4BE7002301400020014000000020FB
:100F200040420F00704770477047000070B504469C
:100F300000250CB9012070BD1549A06A884200D077
:100F400000BF206C30B9204600F024F80020606417
:100F500084F83C00206C00F0100088B9206C20F46C
:100F6000885040F0020020642046FFF757FD002023
:100F70006064206C20F0020040F00100206400E07A
:100F8000012500BF002084F83C0000BF2846D2E7BE
:100F90000100000F70470000F8B504460D461646E4
:100FA0000020009000BF94F83C00012801D10220ED
:100FB000F8BD012084F83C0000BF2068806800F084
:100FC0000100A0B92068806840F0010021688860B5
:100FD000554800685549B0FBF1F000EB4000009027
:100FE00002E00098401E009000980028F9D1206887
:100FF000806800F48070B0F5807F05D1206880683B
:1010000020F48070216888602068806800F001000A
:1010100000287ED0206C40F20161884340F480704B
:1010200020642068406800F4806028B1206C20F4BF
:10103000005040F480502064206C00F48050B0F5E3
:10104000805F04D1606C20F00600606401E0002045
:10105000606400BF002084F83C0000BF344F354876
:10106000A16BC8633448A16B08643448A16BC864A1
:101070006FF02200216808602068406840F08060BE
:10108000216848602068806840F48070216888602A
:10109000226802F14C0133462A46A06B00F069F940
:1010A000786800F01F0018BB25492068884213D0DB
:1010B00024492068884204D1381D006800F01F00D0
:1010C00050B12149206888422BD11948001D006881
:1010D00000F01F00102824D22068806800F04050E3
:1010E000F8B92068806840F080402168886018E086
:1010F00013492068884214D12068806800F040506D
:1011000078B92068806840F080402168886008E0F5
:10111000FFE7206C40F010002064606C40F001009C
:101120006064002044E700000000002040420F00FF
:1011300000230140770900080F0A0008F50900089C
:1011400000200140002101400022014070B504460A
:10115000A56D00F077FA064694F83500022808D00D
:101160008020606500BF002084F8340000BF0120AB
:1011700070BD2068006820F01600216808602068B3
:10118000406920F0800021684861206C08B9A06C9B
:1011900028B12068006820F00800216808602068F5
:1011A000006820F00100216808600FE000F04AFAB2
:1011B000801B05280AD92020606500BF002084F824
:1011C000340000BF032084F83500D1E720680068B0
:1011D00000F001000028E9D194F85C103F2088401D
:1011E000A86000BF002084F8340000BF012084F80C
:1011F00035000020BCE7014691F83500022803D0F5
:101200008020486501207047052081F83500086876
:10121000006820F001000A6810600020F3E7000079
:101220002DE9F0410446002500F00CFA074614B9F8
:101230000120BDE8F081606A00B100BF00BF00205E
:1012400084F8340000BF022084F83500206800686C
:1012500020F00100216808600AE000F0F3F9C01BEB
:10126000052805D920206065032084F83500E0E7D3
:101270002068006800F001000028EED120680568B1
:1012800021480540D4E901010843E1680843216988
:10129000084361690843A1690843E1690843216A79
:1012A00008430543606A042803D1D4E90B010843CD
:1012B0000543206805602068456925F00705606AD8
:1012C0000543606A04280DD1A06A0543E06A48B16D
:1012D0002046FFF7BBFC28B140206065012084F860
:1012E0003500A6E7206845612046FFF795FC0646D5
:1012F00094F85C103F208840B060002060650120B9
:1013000084F83500002094E73F8010F02DE9F0418B
:1013100004460D4616461F464FF0000800BF94F8DD
:101320003400012802D10220BDE8F081012084F8B8
:10133000340000BF94F83500012811D1022084F850
:101340003500002060653B46324629462046FFF7BF
:10135000D2FC2068006840F001002168086006E0C7
:1013600000BF002084F8340000BF4FF00208404660
:10137000DAE72DE9F04704460D4616461F464FF0C2
:101380000008D4F8589000BF94F83400012802D126
:101390000220BDE8F087012084F8340000BF94F8F3
:1013A0003500012825D1022084F835000020606531
:1013B0003B46324629462046FFF79DFC94F85C10D8
:1013C0003F208840C9F808002068006840F01600F7
:1013D00021680860206C28B12068006840F008008F
:1013E000216808602068006840F0010021680860FA
:1013F00006E000BF002084F8340000BF4FF0020870
:101400004046C6E7F8B502460B46002500240020FA
:101410000021DEE0012606FA01F51E6806EA050451
:10142000AC4275D11E7906F00306012E04D01E7958
:1014300006F00306022E13D190684F000326BE402B
:10144000B0434F00DE68BE403043906050680126D4
:101450008E40B0431E79C6F300168E403043506074
:101460001E7906F00306032E09D0D0684F0003262C
:10147000BE40B0434F009E68BE403043D0601E79EE
:1014800006F00306022E13D1CF0802F1200656F80B
:1014900027004E07F70E0F26BE40B0434F07FF0E42
:1014A0001E69BE403043CF0802F1200646F82700EF
:1014B00010684F000326BE40B0431E7906F00306B5
:1014C0004F00BE40304310605E6806F08056B6F1B3
:1014D000805F7DD100BF00260096404E366846F4FE
:1014E00080463E4F3E603E46366806F48046009693
:1014F00000BF00BF3A4E8F0856F827008E07370FFF
:101500000F26BE40B043374EB24202D1002624E03F
:101510005EE0354EB24201D101261EE0334EB242AA
:1015200001D1022619E0324EB24201D1032614E065
:10153000304EB24201D104260FE02F4EB24201D10B
:1015400005260AE02D4EB24201D1062605E02C4EBA
:10155000B24201D1072600E008268F073F0FBE40A8
:1015600030431F4E8F0846F82700264E3068A043B0
:101570005E6806F48036B6F5803F00D12043214EE8
:101580003060361D3068A0435E6806F40036B6F55C
:10159000003F00D120431B4E361D3060361D3068A1
:1015A000A0435E6806F48016B6F5801F00D1204384
:1015B000144E08363060361D3068A0435E6806F46D
:1015C0000016B6F5001F00D120430E4E0C363060D9
:1015D000491C1029FFF41EAFF8BD0000443802403A
:1015E00008380140000002400004024000080240A8
:1015F000000C02400010024000140240001802409B
:10160000001C0240003C0140024613690B400BB134
:10161000012000E00020704710B5426921EA020372
:1016200002EA010443EA0443836110BD0AB1816107
:1016300001E00B048361704701480068000C7047AB
:10164000002004E00148006870470000EC00002022
:101650000348006803490978084401490860704755
:10166000EC000020F400002010B50A48006840F4A7
:101670000070084908600846006840F4806008600F
:10168000032000F07FF80F2000F006F800F02AF8A1
:10169000002010BD003C024070B504460E480078A2
:1016A0004FF47A71B1FBF0F00C490968B1FBF0F529
:1016B000284600F009FC08B1012070BD102C07D2AB
:1016C00000222146501E00F01EF80548046001E08B
:1016D0000120F2E70020F0E7F400002000000020E5
:1016E000F0000020704701460846002809DB00F0A2
:1016F0001F0301229A4043099B0003F1E023C3F832
:10170000002100BF70472DE9F05F80460D46164668
:10171000002702F0F5FC074639462A46334601F019
:101720000700C0F1070ABAF1040F02D94FF0040A0A
:1017300001E0C0F1070AD14600F1040ABAF1070F2F
:1017400002D24FF0000A01E0A0F1030AD4464FF0A4
:10175000010A0AFA09FAAAF1010A0AEA020A0AFACD
:101760000CFA4FF0010B0BFA0CFBABF1010B0BEA7F
:10177000030B4AEA0B042146404602F0C9FCBDE8CF
:10178000F09F000000BF00F00702064B19684FF6FB
:10179000FF031940044B0B4343EA0221014B19603C
:1017A00000BF70470CED00E00000FA0570B504467C
:1017B0000D460CB9012070BD5848006800F00700C4
:1017C000A84209D255490D700846006800F007008C
:1017D000A84201D00120EEE7207800F002000228A4
:1017E0001DD1207800F00400042805D14C48006881
:1017F00040F4E0504A490860207800F008000828CA
:1018000005D14748006840F46040454908604448B5
:10181000006820F0F000A168084341490860207882
:1018200000F00100A8B36068012807D13C480838DF
:101830000068C0F34040B8B90120BCE760680228E6
:1018400002D06068032807D1354808380068C0F323
:10185000406048B90120AEE7314808380068C0F35D
:10186000400008B90120A6E72D48006820F00300D9
:10187000616808432A490860FFF7E4FE064609E06C
:10188000FFF7E0FE801B41F28831884202D9032035
:1018900091E707E02248006800F00C006168B0EBB7
:1018A000810FEDD11D48006800F00700A84209D95A
:1018B0001A490D700846006800F00700A84201D0E0
:1018C000012078E7207800F00400042807D11448AC
:1018D000006820F4E050E16808431149086020786E
:1018E00000F00800082808D10D48006820F4604086
:1018F000216940EAC1000A49086000F03FF8084940
:101900000968C1F30311074A515CC84006490860E1
:1019100006480068FFF7C0FE00204CE7003C02408C
:10192000083802409C9D000800000020F0000020C4
:1019300001480068704700000000002000B5FFF774
:10194000F7FF04490968C1F38221034A515CC8408A
:1019500000BD000008380240AC9D000800B5FFF74C
:10196000E7FF04490968C1F34231034A515CC840AA
:1019700000BD000008380240AC9D00082DE9F0478A
:10198000002400250026A1462548006800F00C0030
:1019900020B1042805D008283AD105E0DFF884906A
:1019A00039E0DFF8849036E01D48001F006800F041
:1019B0003F041B48001F006800F4800078B11A48FB
:1019C0001749091F0968C1F38811A0FB017001467E
:1019D000224600233846FEF7F3FB05460EE0114889
:1019E0000F49091F0968C1F38811A0FB0170014666
:1019F000224600233846FEF7E3FB05460848001F51
:101A00000068C0F30140401C4600B5FBF6F902E057
:101A1000DFF8109000BF00BF4846BDE8F087000027
:101A2000083802400024F40000127A00F8B5044699
:101A30000CB90120F8BD207800F00100002874D016
:101A4000F948006800F00C0004280DD0F648006842
:101A500000F00C00082813D1F348001F006800F4C0
:101A60008000B0F5800F0BD1EF4808380068C0F354
:101A70004040002859D06068002856D10120D9E79D
:101A800000BF6068B0F5803F08D1E74808380068BB
:101A900040F48030E449083908601EE06068B0F521
:101AA000A02F0DD1E0480838006840F48020DE49BE
:101AB000083908600846006840F4803008600CE08F
:101AC000D9480838006820F48030D74908390860C0
:101AD0000846006820F48020086000BF606890B16C
:101AE000FFF7B0FD054606E0FFF7ACFD401B64289C
:101AF00001D903209EE7CC4808380068C0F3404075
:101B00000028F1D011E0FFF79DFD054606E0FFF744
:101B100099FD401B642801D903208BE7C24808388F
:101B20000068C0F340400028F1D1207800F00200A6
:101B300002285FD1BC48006800F00C0058B1BA48D8
:101B4000006800F00C0008281CD1B748001F00688E
:101B500000F48000B0B9B44808380068C0F3400011
:101B600020B1E068012801D0012063E7AE480838C1
:101B7000006820F0F800216940EAC100AA4908394C
:101B8000086037E0E06800B30120A8490860FFF76B
:101B900059FD054606E0FFF755FD401B022801D917
:101BA000032047E7A04808380068C0F34000002839
:101BB000F1D09D480838006820F0F800216940EA1B
:101BC000C10099490839086014E00020974908606D
:101BD000FFF738FD054606E0FFF734FD401B0228FD
:101BE00001D9032026E7904808380068C0F3400078
:101BF0000028F1D1207800F0080008282CD1606975
:101C0000A8B101208A490860FFF71CFD054606E0DF
:101C1000FFF718FD401B022801D903200AE782487C
:101C20006C300068C0F340000028F1D014E00020C0
:101C30007F490860FFF706FD054606E0FFF702FD55
:101C4000401B022801D90320F4E677486C30006875
:101C5000C0F340000028F1D1207800F004000428EF
:101C600070D1002770483830006800F0805090B97B
:101C700000BF002000906C483830006840F0805071
:101C80006949383108600846006800F080500090CB
:101C900000BF00BF01276748006800F48070B0B93A
:101CA0006448006840F4807062490860FFF7CAFC2D
:101CB000054606E0FFF7C6FC401B022801D90320B9
:101CC000B8E65C48006800F480700028F2D000BFDD
:101CD000A068012808D154486830006840F001002D
:101CE0005149683108601DE0A06805280DD14E48B3
:101CF0006830006840F004004B49683108600846CD
:101D0000006840F0010008600CE047486830006857
:101D100020F001004449683108600846006820F05E
:101D20000400086000BFA068A8B1FFF78BFC05465F
:101D300009E0FFF787FC401B41F28831884202D955
:101D4000032077E626E0384868300068C0F340009A
:101D50000028EED013E0FFF775FC054608E0FFF71A
:101D600071FC401B41F28831884201D9032061E6B1
:101D70002D4868300068C0F340000028EFD1012FE3
:101D800007D129483830006820F080502649383182
:101D9000086000BFA069002845D02348006800F013
:101DA0000C0008285DD0A069022845D100201F49F9
:101DB0000866FFF747FC054606E0FFF743FC401BBB
:101DC000022801D9032035E6174808380068C0F317
:101DD00040600028F1D1D4E907010843616A40EA74
:101DE00081110122A06AC2EB500041EA00412C207F
:101DF000005D41EA00600C49091F086001200B49A1
:101E00000866FFF71FFC054606E0FFF71BFC401BBA
:101E1000022801D903200DE6034808380068C0F302
:101E200040600028F1D049E00838024000004742F5
:101E3000800E474200700040002021490866FFF7ED
:101E400001FC054606E0FFF7FDFB401B022801D917
:101E50000320EFE51B480068C0F340600028F2D182
:101E60002CE0A069012800D1E4E51648001D0668B1
:101E7000A069012820D006F48001E06981421BD1CD
:101E800006F03F01206A814216D147F6C07030400B
:101E9000616AB0EB811F0FD106F440310122A06AC4
:101EA000C2EB5000B1EB004F06D106F070612C2060
:101EB000005DB1EB006F01D00120BBE50020B9E56A
:101EC000000047420038024070B504462546681EAF
:101ED000B0F1807F01D301200FE0681E4FF0E021B8
:101EE00048610F214FF0FF3002F012F900204FF04F
:101EF000E021886107200861002070BD70477047AD
:101F000010B504460CB9012010BD94F83D0028B965
:101F1000002084F83C00204600F026F8022084F8D7
:101F20003D00211D206801F0DFFB012084F8460000
:101F300000BF84F83E0001213F200155402001559B
:101F40004120015500BF00BF012084F8420043201A
:101F50000155442001554520015500BF012084F85A
:101F60003D000020D0E7000038B504460F49206846
:101F7000884219D100BF00BF002000900C480068C3
:101F800040F010000A4908600846006800F01000A0
:101F9000009000BF00BF00BF022201213620FFF7E2
:101FA000B2FB3620FFF79FFB38BD00000010004059
:101FB00040380240014691F83D00012801D001203F
:101FC0007047022081F83D000868C06840F00100B9
:101FD0000B68D8601A4B086898421BD00868B0F1AB
:101FE000804F17D0174B0868984213D0164B0868DB
:101FF00098420FD0154B086898420BD0144B0868D4
:10200000984207D0134B0868984203D0124B0868D7
:1020100098420CD10868806800F00702062A0CD0AC
:102020000868006840F001000B68186005E0086867
:10203000006840F001000B6818600020C0E7000055
:10204000000001400004004000080040000C004077
:10205000000401400040014000180040704710B5E6
:10206000044620680069C0F34000D8B12068C06809
:10207000C0F34000B0B16FF0020021680861012098
:1020800020772068806900F0030018B12046FFF730
:10209000E5FF05E0204600F0ADF8204600F0D2FA5A
:1020A0000020207720680069C0F38000D8B1206844
:1020B000C068C0F38000B0B16FF00400216808610F
:1020C000022020772068806900F4407018B1204613
:1020D000FFF7C4FF05E0204600F08CF8204600F032
:1020E000B1FA0020207720680069C0F3C000D8B1A1
:1020F0002068C068C0F3C000B0B16FF0080021686C
:102100000861042020772068C06900F0030018B13E
:102110002046FFF7A3FF05E0204600F06BF82046BD
:1021200000F090FA0020207720680069C0F30010CA
:10213000D8B12068C068C0F30010B0B16FF01000D3
:1021400021680861082020772068C06900F4407089
:1021500018B12046FFF782FF05E0204600F04AF85C
:10216000204600F06FFA002020772068006900F018
:10217000010058B12068C06800F0010030B16FF074
:10218000010021680861204600F0E4FA2068006937
:10219000C0F3C01058B12068C068C0F3C01030B19F
:1021A0006FF08000216808612046FFF7A7FE2068D5
:1021B0000069C0F3801058B12068C068C0F3801077
:1021C00030B16FF0400021680861204600F0CEFA7F
:1021D00020680069C0F3401058B12068C068C0F39F
:1021E000401030B16FF02000216808612046FFF7F1
:1021F00086FE10BD704770B504460D46164600BFFA
:1022000094F83C00012801D1022070BD012084F81F
:102210003C0000BF36B1042E1BD0082E31D00C2E4E
:102220005ED145E02946206801F0DCFA206880692B
:1022300040F00800216888612068806920F004006F
:10224000216888612068806929690843216888615C
:1022500047E02946206801F0FDFA2068806940F4D3
:102260000060216888612068806920F480602168AE
:10227000886120688069296940EA012021688861B5
:102280002FE02946206801F023FB2068C06940F058
:1022900008002168C8612068C06920F00400216836
:1022A000C8612068C069296908432168C86118E0CD
:1022B0002946206801F048FB2068C06940F40060AE
:1022C0002168C8612068C06920F480602168C86105
:1022D0002068C069296940EA01202168C86100E0DE
:1022E00000BF00BF00BF002084F83C0000BF00BF5B
:1022F0008BE710B504460CB9012010BD94F83D00E1
:1023000028B9002084F83C00204600F025F802207F
:1023100084F83D00211D206801F0E6F9012084F8D1
:10232000460000BF84F83E0001213F2001554020B7
:1023300001554120015500BF00BF012084F8420033
:1023400043200155442001554520015500BF01207F
:1023500084F83D000020D0E710B586B00446AD49B2
:102360002068884233D100BF00BF00200090AA48F7
:10237000006840F00100A84908600846006800F0C5
:102380000100009000BF00BF00BF00BF00BF0020E1
:102390000090A1481030006840F008009E491031BC
:1023A00008600846006800F00800009000BF00BF09
:1023B00000BF032001900220029001200390022020
:1023C0000490059001A99548FFF71CF800BF9449B7
:1023D0002068884234D100BF00BF002000908E48A2
:1023E000006840F010008C4908600846006800F062
:1023F0001000009000BF00BF00BF00BF00BF002062
:10240000009085481430006840F4803082491431CF
:1024100008600846006800F48030009000BF00BFEC
:1024200000BF602001900220029001200390022052
:1024300004900320059001A97A48FEF7E3FF00BF4E
:1024400079492068884235D100BF00BF0020009044
:102450007148006840F001006F4908600846006854
:1024600000F00100009000BF00BF00BF00BF00BF30
:102470000020009068481430006840F00100664970
:10248000143108600846006800F00100009000BFA9
:1024900000BF00BF4FF44070019002200290012065
:1024A0000390022004900120059001A95B48FEF7EB
:1024B000A9FF00BF5D492068884235D100BF00BF39
:1024C000002000905448006840F004005249086021
:1024D0000846006800F00400009000BF00BF00BF85
:1024E00000BF00BF002000904B481430006840F04F
:1024F00002004949143108600846006800F00200F3
:10250000009000BF00BF00BF4FF470700190022028
:10251000029001200390022004900320059001A95D
:102520004348FEF76FFF00BF42492068884234D11C
:1025300000BF00BF002000903748006840F008004E
:10254000354908600846006800F00800009000BFA8
:1025500000BF00BF00BF00BF002000902E48103019
:10256000006840F004002C491031086008460068FB
:1025700000F00400009000BF00BF00BF4FF47040A7
:102580000190022002900120039002200490059007
:1025900001A92948FEF736FF00BF28492068884274
:1025A00035D100BF00BF002000901B48006840F0FC
:1025B0000200194908600846006800F00200009017
:1025C00000BF00BF00BF00BF00BF00200090124846
:1025D0001030006840F040000F4910310860084694
:1025E000006800F04000009000BF00BF00BF4FF443
:1025F00040400190022002900120039002200490AC
:102600000920059001A90E48FEF7FCFE00BF06B0A8
:1026100010BD0000000C00403038024000000240B5
:102620000040014000100240000001400004014051
:102630000008024000080040000C02400018004062
:10264000000402407047000070B504460D4615B9FD
:1026500094F83E000BE0042D02D13F20005D06E01F
:10266000082D02D14020005D01E04120005D0128DD
:1026700001D0012070BD1DB9022084F83E000EE09B
:10268000042D03D102213F20015508E0082D03D17C
:1026900002214020015502E0022141200155012282
:1026A0002946206801F08CF823492068884203D02D
:1026B00022492068884201D1012000E0002028B191
:1026C0002068406C40F40040216848641A49206842
:1026D00088421BD02068B0F1804F17D0184920687D
:1026E000884213D01749206888420FD016492068C5
:1026F00088420BD011492068884207D013492068CE
:10270000884203D01249206888420CD12068806832
:1027100000F00706062E0CD02068006840F001008B
:102720002168086005E02068006840F00100216829
:10273000086000209EE70000000001400004014006
:102740000004004000080040000C00400040014030
:102750000018004010B5044603492068884201D1A2
:1027600000F03EFF10BD00000010004070477047B1
:10277000704700002DE9F84F04462068056820687E
:10278000C668206847694FF00009CA4605F00F097E
:10279000B9F1000F0AD105F0200038B106F0200091
:1027A00020B1204601F02FF9BDE8F88FB9F1000FF4
:1027B00072D007F0010018B906F4907000286BD0B1
:1027C00005F0010030B106F4807018B1206C40F0C3
:1027D0000100206405F0040030B107F0010018B1D9
:1027E000206C40F00200206405F0020030B107F0D8
:1027F000010018B1206C40F00400206405F00800CE
:1028000048B106F0200010B907F0010018B1206CA3
:1028100040F008002064206C70B305F0200028B15F
:1028200006F0200010B1204601F0EDF82068406964
:10283000C0F3801A206C00F0080010B9BAF1000F44
:1028400023D0204601F0B4F82068406900F0400031
:10285000402816D12068406920F040002168486176
:10286000A06B50B15648A16B0865A06BFEF7C3FC86
:1028700010B1A06B016D88470CE02046FFF778FF90
:1028800008E02046FFF774FF04E02046FFF770FFE2
:102890000020206488E7FFE7206B012879D105F04C
:1028A0001000002875D006F01000002871D000BF7D
:1028B0000020009020680068009020684068009028
:1028C00000BF00BF2068406900F04000402839D1B7
:1028D000A06B006840681FFA80F8B8F1000F30D094
:1028E000A08D40452DDDA4F82E80A06BC069B0F509
:1028F000807F1FD02068C06820F480702168C86085
:102900002068406920F00100216848612068406922
:1029100020F0400021684861202084F83E0000201B
:1029200020632068C06820F010002168C860A06B98
:10293000FEF70CFCA08DE28D801A81B22046FFF7D5
:1029400016FF31E7A08DE18D401A1FFA80F8E08D67
:10295000E8B1B8F1000F1AD02068C06820F4907078
:102960002168C8602068406920F001002168486142
:10297000202084F83E00002020632068C06820F0FA
:1029800010002168C86041462046FFF7F0FE0BE7C3
:10299000FFE705F0800030B106F0800018B1204656
:1029A00001F0C9F900E705F0400030B106F0400041
:1029B00018B1204601F017F8F6E600BFF4E6000073
:1029C0009D39000810B504460CB9012010BDA0695E
:1029D00000B100E000BF94F83D0028B9002084F861
:1029E0003C00204600F028F8242084F83D002068B0
:1029F000C06820F400502168C860204601F062F8E9
:102A00002068006920F490402168086120684069CE
:102A100020F02A00216848612068C06840F4005016
:102A20002168C86000202064202084F83D0084F8DC
:102A30003E000020CAE7000010B586B004462D49CC
:102A40002068884254D100BF00BF002000902A486F
:102A5000006840F01000284908600846006800F04F
:102A60001000009000BF00BF00BF00BF00BF0020EB
:102A7000009021481438006840F002001E491439C3
:102A800008600846006800F00200009000BF00BF28
:102A900000BF00BF00BF002000900846006840F063
:102AA000020008600846006800F00200009000BFC5
:102AB00000BF00BF4020019002200290012003903F
:102AC000022004900720059001A90C48FEF79AFC0B
:102AD000802001900720059001A90848FEF792FC8C
:102AE0002520FEF700FE032211462520FEF70BFEEF
:102AF00006B010BD001001404438024000040240FE
:102B00002DE9F84F04460E46174699464FF0000A45
:102B100094F83E0020285FD106B117B90120BDE826
:102B2000F88F00BF94F83C00012801D10220F6E79D
:102B3000012084F83C0000BF00202064222084F89B
:102B40003E0000202063FEF77DFD8246A785E785D5
:102B5000A068B0F5805F04D1206910B90025B046A7
:102B600002E035464FF0000800BF002084F83C002A
:102B700000BF29E05346002220212046CDF80090D6
:102B800001F009F908B10320C9E745B92068406898
:102B9000C0F30800A8F8000008F1020811E0A068DE
:102BA000B0F5805F03D0A06828B9206918B9206803
:102BB0004068287004E02068406800F07F002870BA
:102BC0006D1CE08D401EE085E08D0028D2D12020D4
:102BD00084F83E000020A2E70220A0E770B504467A
:102BE0000D46164694F83E00202816D105B10EB9C0
:102BF000012070BD00BF94F83C00012801D10220E3
:102C0000F7E7012084F83C0000BF00202063324633
:102C10002946204601F06CF8EBE70220E9E70000C6
:102C200010B504462049206888423BD11F480088DF
:102C300000F4004088BB1D48008800F4804070B15B
:102C40001B4800780A2803D000201849088024E097
:102C50001648008840F40040144908801DE01448DC
:102C600000780D2806D11148008840F480400F49B3
:102C7000088012E00E4800780C490988C1F30D0164
:102C80000C4A505409480088401C084908800846EE
:102C90000088C72801DD0020088001220449064879
:102CA000FFF79CFF10BD0000001001400C00002049
:102CB0000E000020FC000020C40100202DE9F84F88
:102CC00004460E46174699464FF0000A94F83D0018
:102CD00020285AD106B117B90120BDE8F88F00BFEE
:102CE00094F83C00012801D10220F6E7012084F885
:102CF0003C0000BF00202064212084F83D00FEF746
:102D0000A1FC8246A784E784A068B0F5805F04D167
:102D1000206910B90025B04602E035464FF00008A2
:102D200000BF002084F83C0000BF1BE05346002297
:102D300080212046CDF8009001F02DF808B1032045
:102D4000CBE745B9B8F80000C0F308002168486037
:102D500008F1020803E02878216848606D1CE08CC7
:102D6000401EE084E08C0028E0D153460022402140
:102D70002046CDF8009001F00EF808B10320ACE732
:102D8000202084F83D000020A7E70220A5E7704737
:102D900000BFFEE710B5FEF767FC2921632000F0B5
:102DA000D9FA2921C72000F0B9FB2921C72000F05A
:102DB00043FB2921C72000F06FFB2921632000F08D
:102DC000F9FA2921632000F0D9FB07230222082108
:102DD0004FF4A87005F0E8FEA82002F0D9FC4FF4EB
:102DE000E13005F07BFF04F037FA03F0C3FF42F255
:102DF000CF01092002F00CFC02F0BEFB02F090FBB8
:102E000002F01CFC05F03EFF03F08EFE00F070F9AE
:102E100004F09AFC4FF4E13005F07EFC10BD000098
:102E200010B500200F4908600F48006820F003002B
:102E30000D4908600846006840F001000860002065
:102E40000A49C1F88002022002F0B2FC01200549C3
:102E50000860022002F0ACFC00200449C1F88402A2
:102E600010BD0000848242420014024000804242B1
:102E700000B587B000BF002001901048006840F006
:102E800020000E4908600846006800F0200001900C
:102E900000BF00BF03200290012003900490022095
:102EA000059002A90648FEF7ADFA01200549086021
:102EB0000549C1F8840207B000BD00003038024067
:102EC00000140240808242420080424210B500203D
:102ED0000F4908600F48006820F003000D490860A2
:102EE0000846006840F00100086001200A49C1F866
:102EF0008002022002F05CFC0120054908600220EB
:102F000002F056FC00200449C1F8840210BD000004
:102F100084824242001402400080424270B505465D
:102F200000241648006820F0030014490860084691
:102F300000680860002616E00020114908600220A1
:102F400002F036FC01200F49C1F884026006040E2D
:102F50000B488438006808B1601CC4B2012002F03C
:102F600027FC701CC6B2082EE6DB15B9FFF7AEFFD2
:102F700001E0FFF755FF204670BD0000001402403D
:102F8000848242420080424270B50446154800687F
:102F900020F00300134908600846006840F0010073
:102FA0000860002010490860002517E0E0090E497C
:102FB000091F08606006040E022002F0F9FB0120E0
:102FC0000A49C1F88402022002F0F2FB00200649FF
:102FD0000860022002F0ECFB681CC5B2082DE5DB9E
:102FE00070BD0000001402408482424200804242D0
:102FF00010B50F48006820F003000D49086008462E
:10300000006840F00100086001200A4908600A4990
:10301000C1F88402042002F0CBFB002005490860BF
:10302000042002F0C5FB00200349C1F8840210BD52
:1030300000140240808242420080424210B50F4894
:10304000006820F003000D4908600846006840F061
:103050000100086000200A4908600A49C1F880029E
:10306000042002F0A5FB0120054908600549C1F8CC
:103070008002042002F09CFB10BD000000140240FE
:10308000848242420080424210B500241348006806
:1030900020F003001149086008460068086001201C
:1030A0000F49086002F084FB01200E49C1F8840238
:1030B00002F07EFB07E0601CC4B2FA2C03DDFFF7D0
:1030C000BDFF012010BD0648803800680028F2D1FD
:1030D0000349091D086000BFF4E700000014024026
:1030E000808242420080424210B503F08BFF10BD47
:1030F00010B5FFF7BDFE80216B2000F0D7F86420EB
:1031000002F04CFB00216B2000F0D0F8032000F00F
:103110008BF8002000F080F8322000F0AAF800219F
:10312000382000F0C3F800216A2000F0BFF8002129
:10313000232000F0BBF88021372000F0B7F875207D
:1031400000F013F80446682C0BD101216B2000F02D
:10315000ADF800216C2000F0A9F8322000F089F8C9
:1031600001E0012010BD0020FCE770B50446FFF728
:103170003FFFD020FFF708FFFFF786FF2046FFF74D
:1031800003FFFFF781FFFFF733FFD120FFF7FCFEBE
:10319000FFF77AFF0020FFF7C1FE0546FFF74EFF5D
:1031A000284670BD2DE9F04106460F4614461D46DF
:1031B000FFF71EFF002141EA4601C8B2FFF7E4FE17
:1031C000FFF762FF20B1FFF739FF0120BDE8F08172
:1031D0003846FFF7D9FEFFF757FFFFF709FF012138
:1031E00001EB4601C8B2FFF7CFFEFFF74DFF0DE040
:1031F000012C04D10020FFF791FE287003E001208C
:10320000FFF78CFE2870601EC4B26D1C002CEFD13D
:10321000FFF714FF0020D9E710B50446E006010EC1
:103220001C2000F043F810BD10B50446E006010E66
:103230001B2000F03BF810BD70B504460025BC2CE7
:1032400001DB012510E0622C01DB02250CE02A2CB9
:1032500001DB032508E0142C01DB042504E00A2C23
:1032600001DB052500E0062529461A2000F01EF89E
:1032700070BD70B50446B4F57A7F01DD4FF47A7401
:10328000042C00DA04244FF47A7090FBF4F0401E12
:10329000C5B22946192000F009F80546264604EB78
:1032A000D671C1F34F00FFF7C7FF70BD70B505467B
:1032B0000C46FFF79DFED020FFF766FEFFF7E4FE09
:1032C00018B1FFF7BBFE012070BD2846FFF75CFE7A
:1032D000FFF7DAFE2046FFF757FEFFF7D5FE18B1DD
:1032E000FFF7ACFE0120EFE7FFF7A8FE0020EBE7B9
:1032F0002DE9F04105460E4617469846FFF778FE41
:10330000002141EA4501C8B2FFF73EFEFFF7BCFECF
:1033100020B1FFF793FE0120BDE8F0813046FFF7B2
:1033200033FEFFF7B1FE00240CE018F80400FFF7AD
:103330002BFEFFF7A9FE18B1FFF780FE0120EBE797
:10334000601CC4B2BC42F0DBFFF778FE0020E3E76C
:1033500000BFFEE730B587B005460C461C21684625
:10336000FCF797FF114812490860084644600021A5
:103370008160C560FEF7BDFF6020009000200190D5
:1033800002200290002269460948FEF734FF00211E
:103390000748FFF759F9042269460548FEF72BFF55
:1033A00004210348FFF750F907B030BD000C00407E
:1033B000C803002030B587B005460C461C2168467E
:1033C000FCF767FF1A481B49086008464460002163
:1033D0008160C560FEF78DFF6020009000200190A5
:1033E00002200290082269461248FEF704FF0821D5
:1033F0001048FFF729F90C2269460E48FEF7FBFE3C
:103400000C210C48FFF720F9002269460948FEF715
:10341000F2FE00210748FFF717F904226946054824
:10342000FEF7E9FE04210348FFF70EF907B030BDAF
:1034300000080040E804002030B587B005460C467F
:103440001C216846FCF725FF114812490860084610
:10345000446000218160C560FEF74BFF6020009052
:103460000020019002200290002269460948FEF7E0
:10347000C2FE00210748FFF7E7F804226946054825
:10348000FEF7B9FE04210348FFF7DEF807B030BDB0
:10349000000001405804002030B587B005460C46B6
:1034A0001C216846FCF7F5FE1A481B4908600846CF
:1034B000446000218160C560FEF71BFF6020009022
:1034C0000020019002200290082269461248FEF76F
:1034D00092FE08211048FFF7B7F80C2269460E4803
:1034E000FEF789FE0C210C48FFF7AEF80022694672
:1034F0000948FEF780FE00210748FFF7A5F80422DF
:1035000069460548FEF777FE04210348FFF79CF85B
:1035100007B030BD00040140A004002030B587B0E2
:1035200005460C461C216846FCF7B3FE11481249BB
:1035300008600846446000218160C560FEF7D9FE3E
:103540006020009000200190022002900022694635
:103550000948FEF750FE00210748FFF775F80422DE
:1035600069460548FEF747FE04210348FFF76CF85B
:1035700007B030BD004001401004002030B587B0D6
:1035800005460C461C216846FCF783FE114812498B
:1035900008600846446000218160C560FEF7A9FE0E
:1035A00060200090002001900220029000226946D5
:1035B0000948FEF720FE00210748FFF745F80422DE
:1035C00069460548FEF717FE04210348FFF73CF85B
:1035D00007B030BD001800403005002070470000E3
:1035E000002025E000EB4001144A02EB810109793B
:1035F000E1B900EB400132F82110491C89B200EB1F
:1036000040020E4B23F8221000EB400203EB820233
:10361000528891420ADB002100EB400223F822107D
:10362000012100EB400203EB82021171411CC8B280
:10363000034909788842D5DB704700001C00002050
:103640007000002000241CE004EB44000D4901EB55
:103650008000007968B104EB44010A4A02EB810161
:1036600088688047002004EB4401064A02EB810190
:103670000871601CC0B2044603490978884200DB27
:103680000024E1E71C000020700000207047704714
:1036900010B5FDF7DDFF10BD0348006840F4700071
:1036A000014908607047000088ED00E008480068A4
:1036B000006900F0010020B106480068401C05497F
:1036C00008606FF001000249096808617047000056
:1036D000D0050020A800002010B50248FEF7BFFC6E
:1036E00010BD00007805002010B50268294B9842F3
:1036F0000ED0B0F1804F0BD0274B984208D0274B0B
:10370000984205D0264B984202D0264B984203D1CE
:1037100022F070024B681A431E4B984220D0B0F141
:10372000804F1DD01C4B98421AD01C4B984217D08A
:103730001B4B984214D01B4B984211D01A4B984205
:103740000ED01A4B98420BD0194B984208D0194B07
:10375000984205D0184B984202D0184B984203D19A
:1037600022F44072CB681A4322F080034C6943EA8A
:10377000040202608B68C3620B688362054B984247
:1037800002D0084B984201D10B69036301234361C6
:1037900010BD00000000014000040040000800408F
:1037A000000C004000040140004001400044014082
:1037B0000048014000180040001C0040002000406C
:1037C00030B501F01F05012404FA05F3046A9C4397
:1037D0000462046A01F01F0502FA05F52C43046235
:1037E00030BD000030B5056A25F001050562026AAA
:1037F0004368846924F0700424F003040D682C43AA
:1038000022F002028D682A43104DA84200D103E045
:103810000F4DA84206D100BF22F00802CD682A430E
:1038200022F00402094DA84202D0094DA84207D156
:1038300023F4807323F400734D692B438D692B436C
:10384000436084614D684563026230BD0000014001
:103850000004014030B5056A25F010050562026AD2
:103860004368846924F4E04424F440740D6844EA15
:10387000052422F020028D6842EA0512124DA8426A
:1038800000D103E0114DA84207D100BF22F0800211
:10389000CD6842EA051222F040020B4DA84202D048
:1038A0000A4DA84209D123F4806323F400634D69D3
:1038B00043EA85038D6943EA8503436084614D686B
:1038C0008563026230BD0000000001400004014039
:1038D00030B5056A25F480750562026A4368C469DB
:1038E00024F0700424F003040D682C4322F40072C9
:1038F0008D6842EA0522124DA84200D103E0114D25
:10390000A84207D100BF22F40062CD6842EA052236
:1039100022F480620A4DA84202D00A4DA84209D181
:1039200023F4805323F400534D6943EA05138D6952
:1039300043EA05134360C4614D68C563026230BD4C
:10394000000001400004014030B5056A25F48055AF
:103950000562036A4468C26922F4E04222F44072BC
:103960000D6842EA052223F400538D6843EA0533CB
:10397000084DA84202D0084DA84204D124F4804446
:103980004D6944EA85144460C2614D680564036270
:1039900030BD0000000001400004014070B5054644
:1039A000AC6B0020E085E0842046FEF7E1FE70BDB0
:1039B0000168C96821F490710268D16001684969A1
:1039C00021F0010102685161016B012905D10168F3
:1039D000C96821F010010268D160202180F83E10F2
:1039E00000210163704710B504462068C06820F0CC
:1039F00040002168C860202084F83D002046FFF781
:103A0000C6F9002010BD70B5044694F83E00222887
:103A100056D1A068B0F5805F0CD1206950B900255F
:103A2000A66A20684068C0F308003080A06A801C45
:103A3000A06215E0A56A0026A068B0F5805F03D0FB
:103A4000A06828B9206918B920684068287004E087
:103A50002068406800F07F002870A06A401CA062C7
:103A6000E08D401E80B2E08540BB2068C06820F039
:103A700020002168C8602068C06820F48070216838
:103A8000C8602068406920F001002168486120205A
:103A900084F83E00206B01280AD12068C06820F01D
:103AA00010002168C860A18D2046FEF760FE02E08C
:103AB0002046FFF7B5F80020206370BD0020FCE72A
:103AC0000220FAE72DE9F84F04462068006920F447
:103AD0004050E1680843216808612169A0680843F3
:103AE00061690843E169084300902068C06849F2B1
:103AF0000C618843009908432168C86020684069C8
:103B000020F44070A1690843216848617649206823
:103B1000884203D075492068884203D1FDF71EFF13
:103B2000814602E0FDF70AFF8146E069B0F5004FEB
:103B30006CD102206168A0FB015003461920A9FB4B
:103B4000007001462A463846FCF73AFB6421B0FB78
:103B5000F1F04FEA001A02206168A0FB01510B4608
:103B60001920A9FB00712A463846FCF729FB834639
:103B700002206168A0FB015003461920A9FB0071D7
:103B80002A463846FCF71CFB6421B0FBF1F000EB41
:103B9000C00101EB0010ABEB8000322101EBC00053
:103BA0006421B0FBF1F000F0F8000AEB400A0220BB
:103BB0006168A0FB015003461920A9FB0070014673
:103BC0002A463846FCF7FCFA834602206168A0FBCF
:103BD000015003461920A9FB00712A463846FCF71C
:103BE000EFFA6421B0FBF1F000EBC00101EB001033
:103BF000ABEB8000322101EBC0006421B0FBF1F09F
:103C000000F007005044216888606AE00420616881
:103C1000A0FB015003461920A9FB007001462A466B
:103C20003846FCF7CDFA824604206168A0FB0150BB
:103C300003461920A9FB007001462A463846FCF7C6
:103C4000BFFA6421B0FBF1F000EBC00101EB001002
:103C5000AAEB8000322101EB00106421B0FBF1F0EF
:103C600000F0F00A04206168A0FB017003461920EF
:103C7000A9FB00513A462846FCF7A2FA6421B0FBA2
:103C8000F1F00AEB001A04206168A0FB01510B4619
:103C90001920A9FB00712A463846FCF791FA8346A1
:103CA00004206168A0FB015003461920A9FB0070A5
:103CB00001462A463846FCF783FA6421B0FBF1F04E
:103CC00000EBC00101EB0010ABEB8000322101EBF7
:103CD00000106421B0FBF1F000F00F0050442168A7
:103CE0008860BDE8F88F000000100140001401401A
:103CF00010B5034699629A85DA850020186422205F
:103D000083F83E0000BF002083F83C0000BF186825
:103D1000C06840F480701C68E0601868406940F03A
:103D200001001C6860611868C06840F020001C68D1
:103D3000E060002010BD014691F83D00212828D107
:103D40008868B0F5805F0BD1086948B90A6A1088A5
:103D5000C0F308000B685860086A801C086205E020
:103D60000B6A581C086218780B685860C88C401E93
:103D700080B2C88458B90868C06820F080000B6819
:103D8000D8600868C06840F040000B68D860002028
:103D900070470220FCE72DE9F04104460D46174626
:103DA0009846069E21E0701CF8B12EB1FDF74AFC42
:103DB000A0EB0800B04218D92068C06820F4D07089
:103DC0002168C8602068406920F0010021684861CE
:103DD000202084F83D0084F83E0000BF002084F8D5
:103DE0003C0000BF0320BDE8F08120680068284047
:103DF000A84201D1012000E00020B842D3D0002029
:103E0000F1E7000010B50248FEF7B4FC10BD000059
:103E1000C401002008B50E4800680068C0F34010D7
:103E2000A8B14FF47A73012269460948FEF768FE8B
:103E30000848007807280ADA9DF800000649054A74
:103E40001278885403480078401C0249087008BD65
:103E5000F8070020E8000020E10000202DE9F041F3
:103E60002DED048B0024002500260027684880687B
:103E7000002807DD66480089A0F5FA7000B26549A0
:103E800008800EE062488068002807DA60480089F0
:103E900000F5FA7000B25F49088002E000205D4939
:103EA00008805C49B1F90000192104F095FD5949D9
:103EB00008805748C068002806DD55488089A0F56D
:103EC000FA7000B248800EE05148C068002807DA56
:103ED0004F48808900F5FA7000B24E49488002E0F0
:103EE00000204C4948804B49B1F90200192104F0E7
:103EF000CBFD484948809FED480B084680ED020BFA
:103F0000B0EE080A80ED010A0FC804F003FF444830
:103F100090ED121BB0EE410AF0EE610A53EC102B4B
:103F20009FED3D1B51EC110BFCF76CFA41EC190BAA
:103F30009FED3C0B53EC102BFCF76AFA41EC180B8D
:103F4000FCF777FB84B2364890ED141BB0EE410AC3
:103F5000F0EE610A53EC102B9FED2F1B51EC110B6F
:103F6000FCF750FA41EC190B9FED2E0B53EC102B84
:103F7000FCF74EFA41EC180BFCF75BFB85B22848C6
:103F800090ED161BB0EE410AF0EE610A53EC102BD7
:103F90009FED211B51EC110BFCF734FA41EC190B8E
:103FA0009FED220B53EC102BFCF732FA41EC180B6F
:103FB000FCF73FFB86B21A4890ED181BB0EE410AA1
:103FC000F0EE610A53EC102B9FED131B51EC110B1B
:103FD000FCF718FA41EC190B9FED140B53EC102B66
:103FE000FCF716FA41EC180BFCF723FB87B21148DB
:103FF000006844630F48006885630F4800684663A3
:104000000D4800688763BDEC048BBDE8F0810000BB
:1040100094070020C0050020000000000000F03FD1
:10402000580300200000000000005940000000007C
:1040300000006940C80300201004002000BFFEE714
:104040000346994201DB914201DD0846704700209A
:10405000FCE710B52DED068BB0EE40AAF0EE60AA9D
:10406000B0EE418AF0EE618AB0EE429AF0EE629ACA
:1040700053EC182B51EC1A0BFCF720FB06D2B0EED8
:104080004A0AF0EE6A0ABDEC068B10BD53EC192B00
:1040900051EC180BFCF712FB04D2B0EE490AF0EE1B
:1040A000690AF0E7B0EE480AF0EE680AEBE70000B4
:1040B0000FB4054B10B503A9044A029800F022FD85
:1040C00010BC5DF814FB0000E56300080800002048
:1040D00003B401984100009850EAC12018BF0420A1
:1040E0004A0D18BF40F0010040F2FF72B2EB515F81
:1040F00008BF40F00200012808BF052002B0704749
:1041000002480068C0F30220704700000CED00E098
:1041100010B5002804DB0A07130E054A135406E005
:104120000A07140E034A00F00F031B1FD45410BDDE
:1041300000E400E018ED00E070B5C1482DED020B81
:104140002DED0E8B82B0119D25F000449FEDBEDB5E
:104150009FEDBFEB84423EDBA4F140511098A1F1EA
:104160007F6108430FD0BC48844202DC28D11098FC
:1041700030B39DED100B02B0BDEC0E8B02B0BDE86C
:10418000704000F073BC9DED100B53EC1D2B51ECF7
:10419000100BFCF73DF99DED100B41EC180B53ECA7
:1041A0001E2B51EC100BFCF733F953EC182BFCF7DA
:1041B00088F841EC100B02B0BDEC0E8B02B070BD64
:1041C000012000F099FC02B0BDEC0E8B02B0BDE8FE
:1041D000704000F061BCA1489FEDA18B844256DA8B
:1041E0009DED100BB4F1795F0ADA51EC100BFFF77B
:1041F0006FFF042808BF00F05FFC9DED100BDAE7AD
:1042000053EC102B51EC100BFCF702F941EC190B9D
:1042100095480621B0EE490AF0EE690A784400F0AC
:10422000A9FB53EC192B51EC100BFCF7F1F841EC06
:104230001A0B8E48B0EE490AF0EE690A0421784460
:1042400000F098FB53EC192B51EC100BFCF7E0F845
:1042500053EC182BFCF735F841EC100B51EC1A0B12
:1042600053EC102BFCF746F9CDE900019DED000B56
:1042700053EC102B9DED100B51EC100BFCF7C8F814
:104280009DED101B53EC112BFCF71BF8D2E09DEDBC
:10429000100B51EC100B02F099F853EC182BFCF7B3
:1042A000B4F89FED730BCDE9000153EC102B9DED9D
:1042B000000B51EC100BFCF7ABF841EC190B6E48FE
:1042C0000621B0EE490AF0EE690A784400F052FB8C
:1042D00053EC192B51EC100BFCF79AF841EC1B0B2B
:1042E0006648B0EE490AF0EE690A0421784400F00D
:1042F00041FB53EC192B51EC100BFCF789F853ECF4
:10430000182BFBF7DEFF41EC1C0B51EC190B04F0F2
:1043100013FC41EC180B5A489FED5BABA04222DC2A
:1043200053EC1C2B51EC1B0BFCF7E4F8CDE900011E
:104330009DED000B51EC180B53EC102BFCF768F8BB
:1043400053EC182BFBF7BDFF53EC1A2BFCF760F86E
:1043500053EC1D2BFCF756F853EC1E2BFCF755F8CD
:1043600041EC100B5FE08DED008B002000909DED87
:10437000000B51EC180B53EC102BFBF7A2FF9DED3B
:10438000000B41EC1E0B53EC102B51EC100BFCF707
:104390003FF853EC192BFCF738F853EC1E2BFCF7C5
:1043A000A9F841EC190B53EC1C2B51EC1B0BFCF73F
:1043B000A1F841EC1B0B53EC1A2B51EC190BFCF739
:1043C00027F853EC1D2BFCF720F841EC190B53ECAC
:1043D0001A2B51EC180BFCF71BF853EC1B2BFCF7BA
:1043E00017F853EC192BFCF70DF89DED000B41EC81
:1043F000180B53EC1A2B51EC100BFCF709F89FED3E
:10440000249B53EC192BFCF700F841EC100B51ECFA
:10441000180B53EC102BFBF7F5FF53EC192BFBF7A4
:10442000F4FF41EC100B002D3FF7C5AE51EC100B23
:1044300081F0004141EC100BBDE6000000000000DF
:104440000000F03F00000000075C143326A6913CFA
:10445000182D4454FB21F93F0000F07F0000E03F9D
:10446000000000000000F03FE8670000F667000071
:10447000000000000000E03F3A67000048670000CD
:104480003333EF3F00000000000000000000004058
:10449000182D4454FB21E93F70B59B482DED020BCC
:1044A0002DED068B079D25F00044A04218DC9748AF
:1044B000844202DC0AD1069840B19DED060BBDECAA
:1044C000068B02B0BDE8704000F0D0BA002DCCBF22
:1044D0009FED8F0B9FED900BBDEC068B02B070BD76
:1044E0008F48A04215DD8F48A042D8BF4FF0FF345F
:1044F00058DD9DED060B51EC100BFFF7E9FD04288C
:1045000008BF00F0D9FA9DED060BBDEC068B02B09A
:1045100070BD9DED060B51EC100B01F057FFCDE97E
:10452000060181489FED828BA0423CDD8248A0427B
:104530001FDD00249FED82AB9DED060B53EC1A2B83
:1045400051EC100BFBF7BDFE9DED060B41EC190B7A
:1045500053EC1A2B51EC100BFBF75AFF53EC182BB2
:10456000FBF750FF53EC192BFBF7C4FFCDE9060115
:1045700049E09DED060B012453EC182B51EC100B78
:10458000FBF79FFE9DED060B41EC190B53EC182B2E
:1045900051EC100BFBF736FF53EC192BFBF7AAFF7E
:1045A000CDE906012FE06848A0421FDD02249FEDFF
:1045B000689B9DED060B53EC192B51EC100BFBF790
:1045C00027FF53EC182BFBF77CFE9DED060B41EC0F
:1045D000180B53EC192B51EC100BFBF713FF53EC9A
:1045E000182BFBF787FFCDE906010CE09DED060BCC
:1045F000032453EC102B9FED580B51EC100BFBF7E1
:1046000079FFCDE906019DED060B53EC102B51EC23
:10461000100BFBF7FDFE41EC180B53EC182BFBF7CE
:10462000F7FE41EC190B4E480621B0EE490AF0EEB8
:10463000690A784400F09EF953EC182B51EC100BEA
:10464000FBF7E6FE41EC180B4648B0EE490AF0EEE7
:10465000690A0521784400F08DF953EC192B51ECCF
:10466000100BFBF7D5FE41EC100B51EC180B53EC83
:10467000102B002C0EDAFBF724FE9DED061B53ECED
:10468000112BFBF7C5FE9DED061B53EC112BFBF721
:10469000BCFE35E0FBF715FE9DED061B53EC112B20
:1046A000FBF7B6FE41EC100B2F48784400EBC4003A
:1046B00090ED001B51EC100B53EC112BFBF7A2FEFD
:1046C0009DED061B53EC112BFBF79CFE41EC100BF0
:1046D0002648784400EBC40090ED001B51EC100B11
:1046E00053EC112BFBF791FE41EC100B002DA2BFF8
:1046F000BDEC068B02B070BD51EC100B81F0004197
:1047000041EC100B01E70000000010440000F07FB6
:10471000182D4454FB21F93F182D4454FB21F9BFB7
:104720000000DC3F0000203E0000F33F00000000DE
:10473000000000000000F03F0000E63F0000000025
:104740000000000000000040008003400000000066
:10475000000000000000F83F000000000000F0BF73
:104760008A64000040640000CA63000082630000A5
:1047700070B56B4E2DED040B2DED028B82B0DDF884
:104780001CC0DDE905235C422CF000411C4341EADA
:10479000D474049D22F00040B44205D86C422C43EE
:1047A00040EAD474B4420BD99DED061B9DED040B79
:1047B00002B0BDEC028B04B0BDE8704000F060B9FF
:1047C000ACF14054A4F17F641C430BD0022404EAF2
:1047D000AC7444EAD27405439FED538B9FED542B88
:1047E00007D015E09DED040B51EC100B00F08FFE8F
:1047F00042E0002C11BF012C9DED040B02B0BDEC7A
:10480000028B04BF04B070BD022C38D0032C3BD007
:104810000B439FED491B9FED4A0B0AD0B14218D1C3
:10482000B04209D121F0804120F0804007910590ED
:104830000FE0002A15DA10E0434B7B44002C08BF40
:1048400093ED000B0DD0012C10D0022C17D0032CAF
:104850001AD0B0421DD1002A03DAB0EE410AF0EEC0
:10486000610A02B0BDEC028B04B070BD93ED000B89
:1048700051EC100B81F0004141EC100BF1E7B0EE70
:10488000480AF0EE680AECE7B0EE420AF0EE620A7F
:10489000E7E7401A00153C28C8BF8DED000B19DC76
:1048A000BCF1000FBEBF10F13C0F9FED290B8DED49
:1048B000000B0FDB9DED060B53EC102B9DED040B55
:1048C00051EC100BFBF716FE01F080FD00F01FFE0F
:1048D000CDE90001002C08BF9DED000BC1D0012CDB
:1048E00010D0022C9FED1C0B53EC102B9DED000BF8
:1048F00051EC100B0DD0FBF785FD53EC182BFBF79B
:1049000081FDB9E7019880F0004001909DED000B1A
:10491000A7E7FBF777FD53EC182BFBF776FDABE72A
:104920000000F07F00000000182D4454FB210940D6
:10493000182D4454FB2109C0182D4454FB21F9BF04
:10494000182D4454FB21F93FB26200000000000022
:104950000000000000000000075C143326A6A13C04
:104960002DED020B019820F0004001909DED000B11
:1049700002B0704770B504462DED028B4D1E00EB62
:10498000C500B0EE408AF0EE608A90ED000B35F085
:10499000060017D053EC182B51EC100BFBF738FD29
:1049A00041EC100B6D1E04EBC50090ED001B51ECAB
:1049B000100B53EC112BFBF784FC41EC100B35F082
:1049C0000600E7D1022D36D0042D1CD0062D1CBFC9
:1049D000BDEC028B70BD53EC182B51EC100BFBF7A8
:1049E00017FD94ED0A1B53EC112BFBF76AFC53ECFB
:1049F000182BFBF70DFD94ED081B53EC112BFBF767
:104A000060FC41EC100B53EC182B51EC100BFBF736
:104A1000FFFC94ED061B53EC112BFBF752FC53ECFF
:104A2000182BFBF7F5FC94ED040B53EC102BFBF764
:104A300048FC41EC100B53EC182B51EC100BFBF71E
:104A4000E7FC94ED021B53EC112BFBF73AFC53EC03
:104A5000182BFBF7DDFC94ED001B53EC112BFBF73F
:104A600030FCBDEC028B41EC100B70BD10B553EC6B
:104A7000102B51EC100BFBF724FC41EC100B10BD7C
:104A800010B553EC112B51EC100BFBF71AFC41EC59
:104A9000100B10BD000000009FED050B10B553EC8E
:104AA000102B51EC100BFBF725FD41EC100B10BD4A
:104AB00000000000000000009FED050B10B553EC56
:104AC000102B51EC100BFBF7A3FC41EC100B10BDAD
:104AD000000000000000001002E008C8121F08C11A
:104AE000002AFAD170477047002001E001C1121F6F
:104AF000002AFBD1704700000149086070470000A0
:104B0000F80000202DE9FF4F8DB00F460546002626
:104B100006E025280BD0DDE90F1290476D1C761CAE
:104B200028780028F5D111B03046BDE8F08F002478
:104B3000A246A1460122EC4900E0044315F8013FDA
:104B4000203B02FA03F00842F7D128782A2810D037
:104B50006FF02F022878A0F13001092914D80AEB50
:104B60008A0102EB410144F0020400EB010A6D1CD2
:104B7000F0E701CF5FEA000A03D544F40054CAF11C
:104B8000000A44F002046D1C28782E2817D115F86D
:104B9000010F44F004042A280ED06FF02F02287869
:104BA000A0F1300109290AD809EB890102EB410182
:104BB00000EB01096D1CF2E757F8049B6D1C287887
:104BC0006C280FD006DC4C2817D068280DD06A2836
:104BD00014D104E0742810D07A280FD10DE044F4E9
:104BE00000140AE044F4801401E044F440146978AD
:104BF000814202D104F580146D1C6D1C2A786E2A46
:104C00001FD00CDC632A31D004DC002A8BD0582A58
:104C100011D1A3E0642A68D0692A0CD165E0732A17
:104C20002ED004DC6F2A73D0702A04D19BE0752A41
:104C30006FD0782A6ED01046DDE90F129047761CAF
:104C400050E1C4F30250022806D0032809D00428FA
:104C500001CF09D0066045E101CFF117C0E900613D
:104C600040E101CF06803DE106703BE117F8040BFF
:104C70008DF8000000208DF80100EB46012003E0D4
:104C800057F804BB4FF0FF3061074FF0000102D42A
:104C90000DE008F10101884649450FDA8045F8DB4F
:104CA0001BF808100029F4D108E008F1010188463A
:104CB0008142FADB1BF808100029F6D1DDE90F2349
:104CC000AAEB08008146214600F036F9304400EB9B
:104CD000080604E0DDE90F121BF8010B9047B8F15C
:104CE0000108F7D221464846F7E00A21C4F30253EF
:104CF0004FF0000B0891022B04D001CFC117032BFA
:104D000009D00AE0FF1D27F00707F7E8020108E0D5
:104D100032E01FE020E000B2C117042B01D140B205
:104D2000C117031E71F1000307DA4FF0000CD0EB3E
:104D30000C006CEB01012D2302E0230504D52B238D
:104D40008DF82430012303E0E30701D02023F7E7A7
:104D5000984658E00A2110E010210EE010204FF094
:104D6000000B08900CE010214FF0000B44F00404FD
:104D70004FF00809089103E008214FF0000B08915B
:104D8000C4F30253022B04D001CF0021032B06D021
:104D900006E0FF1D27F00707F7E8020103E080B2F5
:104DA000042B00D1C0B24FF0000823072BD5702A86
:104DB00007D0DDF820C08CF0100C5CEA0B0C05D09D
:104DC0000EE040238DF82430012308E050EA01036F
:104DD00006D030238DF824308DF825200223984604
:104DE000DDF820C08CF0080C5CEA0B0C0BD150EA0B
:104DF000010301D1630706D530238DF824304FF02D
:104E00000108A9F10109582A04D038A20B9208AA76
:104E10000A920BE03AA2F9E75B46089AFBF7D0F951
:104E20000B9B9B5C0A9A521E0A92137050EA010275
:104E3000F2D10A98ADEB000000F1200B600702D51B
:104E400024F4803401E04FF00109D94502DDA9EBDB
:104E50000B0000E0002000EB0B0141440890AAEB9E
:104E6000010AE00306D4DDE90F232146504600F095
:104E700063F806444FF0000908E009A911F8090099
:104E8000DDE90F12904709F10109761CC145F4DBF9
:104E9000E0030CD5DDE90F232146504600F04CF825
:104EA000064404E0DDE90F1230209047761C089993
:104EB000481E08900029F5DC08E00A980A99007855
:104EC000491C0A91DDE90F129047761CBBF10001E5
:104ED000ABF1010BF1DC21465046DDE90F2300F078
:104EE00019F806446D1C1BE60928010030313233E5
:104EF0003435363738396162636465660000000016
:104F000030313233343536373839414243444546FF
:104F1000000000002DE9F041044600251E4617461A
:104F2000880404D405E039462020B0476D1C641E77
:104F3000F9D52846BDE8F0812DE9F0410446002569
:104F40001E469046C80301D5302700E0202788047C
:104F500004D505E041463846B0476D1C641EF9D5BE
:104F60002846BDE8F0810000F0B52DED028B83B03E
:104F700006460F460025684601F042FA002447E045
:104F800056F8241057F82420881A002801DB01461F
:104F900000E0414200EE101AB8EEC00ADFED200A30
:104FA00080EE208A684600EB840090ED000AB5EEA2
:104FB000C00AF1EE10FA18D0684600EB8400D0ED7C
:104FC000000A88EE200AF7EE000A70EE608AB0EE62
:104FD000E80A1448D0ED090AB4EEE00AF1EE10FA3E
:104FE00015DD0120A040054311E00E4890ED070AB1
:104FF000B4EEC80AF1EE10FA06DC90ED080AB4EE41
:10500000C80AF1EE10FA02D20120A0400543641C48
:10501000032CB5DB284603B0BDEC028BF0BD0000CD
:1050200000008047DC9D000814490968896821F068
:105030000101124A1268916011490968096821F05A
:1050400001010F4A126811600D49096848600C4956
:105050000968096841F00101094A126811600749AD
:105060000968896841F00101044A126891600549A4
:10507000896841F08041034A91607047080200202E
:10508000500200200020014000B58BB000BF00207E
:1050900000901948006840F0010017490860084670
:1050A000006800F00100009000BF00BFFC200690E7
:1050B000032007900020089006A91048FCF7A2F9E9
:1050C00000BF002000900C48006840F004000A492E
:1050D00008600846006800F00400009000BF00BFB0
:1050E00010200190032002900020039001A90448A1
:1050F000FCF788F90BB000BD3038024000000240D8
:105100000008024001B582B000BF00BF002001903E
:105110004F48006840F480704D49086008460068B8
:1051200000F48070019000BF00BF00BF00BF0020EE
:10513000019047481438006840F48000444914390D
:1051400008600846006800F48000019000BF00BFBE
:105150004048414908600020486000213E48816085
:10516000C1604FF480610161490041618900816142
:105170000021C1614FF480310162FCF751F8002336
:1051800036493548029AFCF7C1F8334834498863F8
:1051900032484C3808604FF4803048600021304875
:1051A0008160C160012101610176002180F8201039
:1051B0000721C161002141622A4981620021C16247
:1051C000012180F83010FBF7B1FEFFF75DFF0723E8
:1051D00001220221224800F08BF907230222032139
:1051E0001F4800F085F90723032204211C4800F022
:1051F0007FF9072304220521194800F079F90723D4
:1052000005220621164800F073F9072306221946E5
:10521000134800F06DF907231A460E21104800F0DC
:1052200067F9032211463C20FCF76DFA3C20FCF79D
:105230005AFA022202A90A48FBF7AEFE06480068A5
:10524000006840F010000449096808600EBD0000C5
:105250004438024070640240500200204C2001405B
:10526000080200200100000F15490968896821F033
:105270000101134A1268916012490968096821F016
:105280000101104A126811600E49096848600D4911
:105290000968096841F001010A4A12681160084969
:1052A0000968896841F00101054A12689160064960
:1052B000096841F08041054AC2F8081270470000B1
:1052C000B0020020F8020020082201400020014026
:1052D00000B58BB000BF002000901A48006840F075
:1052E0002000184908600846006800F0200000907F
:1052F00000BF00BF4FF4FF6006900320079000201E
:10530000089006A91048FCF77DF800BF0020009027
:105310000C48006840F004000A490860084600682C
:1053200000F00400009000BF00BF0F200190032098
:1053300002900020039001A90448FCF763F80BB029
:1053400000BD000030380240001402400008024056
:1053500001B582B000BF00BF002001905E48006828
:1053600040F480605C4908600846006800F4806092
:10537000019000BF00BF00BF00BF00200190564851
:105380001438006840F48000534914390860084616
:10539000006800F48000019000BF00BF4F485049F2
:1053A00008604FF08060486000214D488160C16016
:1053B0004FF48061016149004161890081610021F0
:1053C000C1614FF480310162FBF72AFF0023454998
:1053D0004348029AFBF79AFF414843498863414892
:1053E0004C3808604FF48030486000213E488160AE
:1053F000C160012101610176002180F820100C219B
:10540000C16100214162394981620021C1620121EB
:1054100080F83010FBF78AFDFFF75AFF07230122BF
:105420000F21314800F064F80723022209212E4899
:1054300000F05EF8072303220E212B4800F058F8F5
:10544000072304221146284800F052F807230522BA
:105450000621254800F04CF80723062205212248A2
:1054600000F046F807231A460C211F4800F040F8C8
:10547000072308220D211C4800F03AF807230922CF
:105480000A21194800F034F807230A220B21164894
:1054900000F02EF807230B221946134800F028F8D5
:1054A00007230C220821104800F022F8032211469D
:1054B0003920FCF728F93920FCF715F9022202A956
:1054C0000948FBF769FD06480068006840F01000D5
:1054D0000349096808600EBD443802402864024050
:1054E000F80200204C220140B00200200100000F11
:1054F0002DE9FF4107460C4615461E4600940195CE
:10550000029669463846FBF747FCBDE8FF8110B5B7
:1055100041EC100BFEF7C0FF51EC100B10BD00006A
:1055200000B587B000BF00BF0020019010480068A0
:1055300040F004000E4908600846006800F00400CE
:10554000019000BF00BF00BF202002900120039007
:1055500004900220059002A90648FBF753FF00BF04
:10556000002220210348FCF761F800BF07B000BD0E
:10557000303802400008024000B587B000BF00BFCD
:10558000002001902048006840F008001E49086093
:105590000846006800F00800019000BF00BF00BF8F
:1055A00000BF00BF002001900846006840F00800DE
:1055B00008600846006800F00800019000BF00BFC6
:1055C00000BF8815029001200390049002200590EE
:1055D00002A90E48FBF716FF4FF40070029002A9D3
:1055E0000A48FBF70FFF00BF012211020748FCF732
:1055F0001DF800BF00BF012251020448FCF716F855
:1056000000BF07B000BD000030380240000C02406F
:1056100070B505460C4607480749086008464460CF
:1056200000218160C560FCF76BFC0348FCF7C2FCFD
:1056300070BD0000001000407805002000B587B064
:1056400000BF00BF002001903548006840F008000E
:10565000334908600846006800F00800019000BF68
:1056600000BF00BF081502900120039004900220A3
:10567000059002A92B48FBF7C5FE00BF012291024D
:105680002848FBF7D3FF00BF00BF00BF00200190F8
:105690002348006840F0020021490860084600687D
:1056A00000F00200019000BF00BF00BF881402900C
:1056B0000120039004900220059002A91A48FBF7EC
:1056C000A1FE00BF012211031748FBF7AFFF00BF87
:1056D00000BF00BF002001901148006840F00200A8
:1056E0000F4908600846006800F00200019000BF02
:1056F00000BF00BF4FF400500290012003900490BF
:105700000220059002A90848FBF77CFE00BF012299
:1057100051030548FBF78AFF00BF07B000BD00003A
:1057200030380240000C0240000402402DE9F041F4
:105730000446E07800F0C006E07800F03F056078AD
:1057400000F0010098B1EF102846E91705EB517100
:10575000C910A5EBC101491C01F0FF080B48006806
:1057600020B10A48414602683846904700BF607839
:1057700000F0080030B10548406818B1B011034A84
:10578000516888470020BDE8F0810000E80700204C
:1057900001490860704700000400002010B504466D
:1057A0004FF47A7104FB01F000F002F810BD000024
:1057B00070B5034600224FF0E02675690D4E36683D
:1057C00003FB06F44FF0E026B16910E04FF0E0264D
:1057D000B06988420BD0884202D20E1A324402E0ED
:1057E0002E1A0E4432440146A24200D300E0EDE7F7
:1057F00000BF70BD0400002038B5044664B120200D
:105800008DF8000028208DF8010030208DF802006E
:1058100038208DF8030004E0A32204216846FAF73B
:1058200031FD6A46042140F69E2002F035FF02F069
:105830001FFB38BD3EB5044602208DF80000CA208B
:105840008DF80100E3208DF8020009208DF8030097
:105850006A460421682002F01FFFA3208DF8000093
:1058600004F0400048B1C0208DF80100C8208DF838
:105870000200C2208DF8030006E0A3208DF801008D
:105880008DF802008DF8030004F4C07048B1C42004
:105890008DF80400CC208DF80500C6208DF8060098
:1058A00006E0A3208DF804008DF805008DF80600B1
:1058B000A3208DF807008DF808008DF809006A46CE
:1058C0000A2140F6A72002F0E7FE04F0030018B119
:1058D00020208DF8000002E0D8208DF800006A46F4
:1058E000012140F6B62002F0D7FE04F0200018B1E6
:1058F000012000F0ADF802E0002000F0A9F804F467
:10590000C07008B304F4807060B1B2208DF800005C
:105910008B208DF80100B6208DF802009B208DF8B9
:1059200003000BE0B0208DF8000080208DF801000E
:10593000B4208DF8020090208DF803006A460421FF
:1059400040F6A22002F0A8FE04F0010020B3F820E7
:105950008DF800006A4601214FF40B6002F09CFEB6
:10596000FA21072000F02CFC072000F0F3FB0120B7
:1059700000F013FC642000F003FD4FF4FA7000F017
:1059800012FDC821304800F0A3FB282000F0BCFB2A
:105990000A2000F0CCFB08E0D8208DF800006A4611
:1059A00001214FF40B6002F077FE04F0020018B101
:1059B000D9208DF8000002E0D8208DF800006A465A
:1059C000012140F23D7002F067FE04F0040018B1BE
:1059D000012000F069F802E0002000F065F804F012
:1059E000100018B10120FFF707FF02E00020FFF7C9
:1059F00003FF44F008001549488102F039FA0020FD
:105A00001249887304F0400018B10846807B801D5D
:105A1000887304F4C07020B10C48807B801D0B4952
:105A2000887304F0140020B10848807B10300749C7
:105A3000887304F0030020B10448807B001D0349F3
:105A4000887300203EBD000009E3CA02E807002079
:105A50003EB504466CB10EA1D1E900208968CDE9BC
:105A6000002002916A4609214FF4976002F014FE6B
:105A70003EBD0AA2D2E900109268CDE90102009170
:105A80006A4609214FF4976002F006FEF0E7000035
:105A9000B8AAB38DB4980D355D000000B8AAAAAAC3
:105AA000B088C3C5C700000038B5044664B1C02043
:105AB0008DF80000C2208DF80100C4208DF802008E
:105AC000C6208DF8030004E08B2204216846FAF713
:105AD000D9FB6A46042140F6982002F0DDFD02F071
